:100000000C9434010C9446010C9446010C94460166
:100010000C9446010C9446010C9446010C94460144
:100020000C9446010C9446010C9446010C94460134
:100030000C9446010C9446010C9446010C94460124
:100040000C9446010C9446010C9446010C94460114
:100050000C9446010C9446010C9446010C94460104
:100060000C9446010C9446010000330051006700D7
:100070007C008F00A300B600C800DB00EE0000018A
:10008000120130014E016D018F018F018F018F012F
:100090008F018F018F018F018F018F018F018F01E0
:1000A0008F018F018F018F018F018F018F018F01D0
:1000B0008F018F018F018F018F018F018F018F01C0
:1000C0008F018F018F018F018F016D014E01300172
:1000D00012010001EE00DB00C800B600A3008F0093
:1000E0007C006700510033000000330051006700BE
:1000F0007C008F00A300B600C800DB00EE0000010A
:10010000120130014E016D018F018F018F018F01AE
:100110008F018F018F018F018F018F018F018F015F
:100120008F018F018F018F018F018F018F018F014F
:100130008F018F018F018F018F018F018F018F013F
:100140008F018F018F018F018F016D014E013001F1
:1001500012010001EE00DB00C800B600A3008F0012
:100160007C006700510033008F018F018F018F01E8
:100170008F018F018F018F018F018F018F018F01FF
:100180008F018F018F018F018F016D014E013001B1
:1001900012010001EE00DB00C800B600A3008F00D2
:1001A0007C006700510033000000330051006700FD
:1001B0007C008F00A300B600C800DB00EE00000149
:1001C000120130014E016D018F018F018F018F01EE
:1001D0008F018F018F018F018F018F018F018F019F
:1001E0008F018F018F018F018F018F018F018F018F
:1001F0008F018F018F018F018F018F018F018F017F
:100200008F018F018F018F018F016D014E01300130
:1002100012010001EE00DB00C800B600A3008F0051
:100220007C0067005100330000003300510067007C
:100230007C008F00A300B600C800DB00EE000001C8
:10024000120130014E016D018F018F018F018F016D
:100250008F018F018F018F018F018F018F018F011E
:100260008F018F018F018F0111241FBECFEFD8E0C6
:10027000DEBFCDBF11E0A0E0B1E001C01D92A23011
:10028000B107E1F70E946E010C94D8010C940000B4
:10029000E1E8F0E0808188618083A0E8B0E08C91A3
:1002A0008E7F8C938C91826B8C9380E991E09093FC
:1002B0008700809386008FE891E090938900809377
:1002C000880087E690E090938B0080938A0080817D
:1002D0008160808384B1866084B908950E9448015A
:1002E0000E94A9010E94A301C0E0C7FD2AC08C2F73
:1002F00090E0880F991FFC01E859FF4F2591349138
:1003000030938B0020938A0088599E4FFC01859181
:100310009491909389008093880080EF0E94BD01A2
:100320008FE39CE90197F1F700C0000081E00E9493
:10033000B4018FE39CE90197F1F700C00000CF5FA3
:10034000D4CFC0E0D4CF2C98449A08952C9A4498E6
:10035000089587B18C6387B988B18C7388B9249A62
:100360000895439A439808952C984498429A429845
:1003700081110E94B1010C94A30198E080FF02C09A
:10038000459A01C045988695429A42989150B1F796
:100390000C94B10120E180FF02C0459A01C045984C
:1003A00096958795429A42982150A9F70C94B101ED
:0403B000F894FFCFEF
:00000001FF
