:100000000C9438020C946B020C9455020C9455021B
:100010000C9455020C9455020C9455020C94550204
:100020000C9455020C9433030C9455020C94550215
:100030000C9455020C94D8020C9455020C94550261
:100040000C94B3030C9455020C9455020C94550275
:100050000C9455020C94C7030C9455020C94550251
:100060000C9455020C94550201010101010101019A
:100070000101010101010101010101010101010170
:100080000101010101010101010000000000000067
:100090000000000000000000000000000000000060
:1000A0000000000000000000010101010101010148
:1000B0000101010101010101010101010101010130
:1000C0000101010101010101010000000000000027
:1000D0000000000000000000000000000000000020
:1000E0000000000000000000000000000000000010
:1000F0000000000000000000000000000000000000
:1001000000000000000000000001010101010101E8
:1001100001010101010101010101010101010101CF
:1001200001010101010101010100000000000000C6
:1001300000000000000000000000000000000000BF
:1001400000000000000000000001010101010101A8
:10015000010101010101010101010101010101018F
:100160000101010101010101011008040000000268
:100170009C9C9C9C9C9C9C9C9C9C9C9C9C9C9C9CBF
:100180009C9C9C9C9C9C9C9C9C9C9C9C9C9C9C9CAF
:100190009C5C5C5C5C5C5C5C5C5C5C5C5C5C5C5C5F
:1001A0005C5C5C5C5C5C5C5C5C5C5C5C5C5C5C5C8F
:1001B0005C6C6C6C6C6C6C6C6C6C6C6C6C6C6C6C8F
:1001C0006C6C6C6C6C6C6C6C6C6C6C6C6C6C6C6C6F
:1001D0006CACACACACACACACACACACACACACACAC9F
:1001E000ACACACACACACACACACACACACACACACAC4F
:1001F000ACACACACACACACACACACACACACACACAC3F
:10020000ACACACACACACACACACACACACACACACAC2E
:10021000AC6C6C6C6C6C6C6C6C6C6C6C6C6C6C6CDE
:100220006C6C6C6C6C6C6C6C6C6C6C6C6C6C6C6C0E
:100230006C5C5C5C5C5C5C5C5C5C5C5C5C5C5C5CEE
:100240005C5C5C5C5C5C5C5C5C5C5C5C5C5C5C5CEE
:100250005C9C9C9C9C9C9C9C9C9C9C9C9C9C9C9C1E
:100260009C9C9C9C9C9C9C9C9C9C9C9C9C9C9C9CCE
:1002700000003300510067007C008F00A300B6002F
:10028000C800DB00EE000001120130014E016D01DB
:100290008F018F018F018F018F018F018F018F01DE
:1002A0008F018F018F018F018F018F018F018F01CE
:1002B0008F018F018F018F018F018F018F018F01BE
:1002C0008F018F018F018F018F018F018F018F01AE
:1002D0008F016D014E01300112010001EE00DB00C3
:1002E000C800B600A3008F007C00670051003300F7
:1002F00000003300510067007C008F00A300B600AF
:10030000C800DB00EE000001120130014E016D015A
:100310008F018F018F018F018F018F018F018F015D
:100320008F018F018F018F018F018F018F018F014D
:100330008F018F018F018F018F018F018F018F013D
:100340008F018F018F018F018F018F018F018F012D
:100350008F016D014E01300112010001EE00DB0042
:10036000C800B600A3008F007C0067005100330076
:100370008F018F018F018F018F018F018F018F01FD
:100380008F018F018F018F018F018F018F018F01ED
:100390008F016D014E01300112010001EE00DB0002
:1003A000C800B600A3008F007C0067005100330036
:1003B00000003300510067007C008F00A300B600EE
:1003C000C800DB00EE000001120130014E016D019A
:1003D0008F018F018F018F018F018F018F018F019D
:1003E0008F018F018F018F018F018F018F018F018D
:1003F0008F018F018F018F018F018F018F018F017D
:100400008F018F018F018F018F018F018F018F016C
:100410008F016D014E01300112010001EE00DB0081
:10042000C800B600A3008F007C00670051003300B5
:1004300000003300510067007C008F00A300B6006D
:10044000C800DB00EE000001120130014E016D0119
:100450008F018F018F018F018F018F018F018F011C
:100460008F018F018F018F018F018F018F018F010C
:1004700011241FBECFEFD8E0DEBFCDBF11E0A0E05A
:10048000B1E0EEE6F4E102C005900D92AA3CB1079E
:10049000D9F711E0AAECB1E001C01D92A33EB1076B
:1004A000E1F70E94FA040C94350A0C9400008AB11A
:1004B0008F788AB98AB1837F8AB95A9A5798259AD0
:1004C0000895E9E6F0E080818260808380818E7FFC
:1004D0008083E89A08951F920F920FB60F9211240D
:1004E0008F939F93EF93FF934F9B3DC085B190E215
:1004F000892785B99091CC018091CB01890F809398
:10050000CC018091CC0187FD1092CC01E091CC010F
:10051000F0E0EE0FFF1FE059FD4F8591949190930D
:10052000D7018093D601E091CC01F0E0EE0FFF1FE0
:10053000E059FC4F859194919093D5018093D4011B
:100540004B9B06C0E091CC01F0E0E051FE4F05C0AE
:10055000E091CC01F0E0E059FE4FE491E093D80146
:1005600081E08093D301FF91EF919F918F910F9044
:100570000FBE0F901F901895E9B1E077F0E024E0EE
:10058000F595E7952A95E1F7E859FE4FE491E09358
:10059000CB018091CB011F928F9387E091E09F93D5
:1005A0008F930E94FB050F900F900F900F9008956E
:1005B0001F920F920FB60F9211242F933F934F93D8
:1005C0005F936F937F938F939F93AF93BF93EF93BB
:1005D000FF938091D4019091D501909389008093ED
:1005E00088008091D6019091D70190938B008093E1
:1005F0008A008091D8010E941605FF91EF91BF916A
:10060000AF919F918F917F916F915F914F913F91AA
:100610002F910F900FBE0F901F901895E1E8F0E01A
:10062000808188618083A0E8B0E08C918E7F8C937C
:100630008C91826B8C93AFE6B0E08C9181608C934F
:1006400080E991E0909387008093860087E690E0B0
:100650009093D5018093D40180818160808384B19F
:10066000866084B908951F920F920FB60F921124DD
:100670002F933F934F935F936F937F938F939F93AA
:10068000AF93BF93EF93FF938091CA018F5F8093E5
:10069000CA018091CA018B3010F01092CA0180917A
:1006A000CA01863019F482E00E9416058091CA01C1
:1006B000873020F18091CA01893000F59091D801EE
:1006C000E091CC01F0E0E851FF4FE491E11105C069
:1006D0009E7F9E6080EC982702C09E739E60E09192
:1006E000CC01F0E0E859FF4FE491E11103C080E351
:1006F000892702C0892F8F7C0E9416058091CA012C
:10070000893058F08091CA018B3038F48091CC0147
:100710008091CC018EE00E94160585EF8093B20097
:10072000FF91EF91BF91AF919F918F917F916F91C9
:100730005F914F913F912F910F900FBE0F901F909F
:10074000189585EF8093B2001092CA011092B00004
:10075000E0E7F0E0808181608083E1EBF0E0808180
:100760008260808308951F920F920FB60F9211241A
:100770000F900FBE0F901F90189514BCEEE6F0E09E
:1007800080818160808385B5856085BD08951F92D5
:100790000F920FB60F9211242F938F939F938091F6
:1007A00006018823A9F010920601809178009091AB
:1007B00079009093CE018093CD0180917C0082607E
:1007C00080937C0081E08093D2018EEF86BD13C0C0
:1007D00021E0209306018091780090917900909318
:1007E000D0018093CF0180917C008D7F80937C002D
:1007F00016BC2093D1019F918F912F910F900FBE26
:100800000F901F901895EAE7F0E080818868808358
:100810000895EAE7F0E080818083089580E4809382
:100820007C00EEE7F0E080818360808384E0809349
:100830007B0082E280937A00089580E895E20E942E
:100840004D050E94020581E00E940D050E94FC04F6
:100850000E940E030E9457020E9461020E94BC0285
:100860000E940E040E9403040E94BD0386E191E0F1
:100870000E940F0681E08093CB01612C02E211E01F
:100880004EE4E42E41E0F42E50EC952E60E3862EEB
:1008900071E7C72E71E0D72EEEE07E2EFDE9AF2E78
:1008A000F1E0BF2E67FCA4C0C62DD0E0CE01880FBA
:1008B000991FFC01E059FD4F259134913093D701E8
:1008C0002093D601FC01E059FC4F859194919093BF
:1008D000D5018093D4019093890080938800809102
:1008E000D6019091D70190938B0080938A0020913C
:1008F0008A0030918B0080918800909189003F930D
:100900002F939F938F931F926F921F930F930E9429
:10091000FB05FE01E051FE4F5490852D0E94160507
:100920001F925F921F926F92FF92EF920E94FB05BF
:100930002FEF83EC99E0215080409040E1F700C018
:10094000000082E00E941605FE01E851FF4FE4918D
:100950008DB79EB70E960FB6F8949EBF0FBE8DBF93
:10096000852DE11104C08E7F8E60892502C08E73B3
:100970008E60FE01E859FF4FE491E11103C0582E4B
:10098000582402C08F7C582E852D0E9416051F9278
:100990005F92DF93CF93DF92CF920E94FB058FEFA0
:1009A00093EC29E0815090402040E1F700C0000026
:1009B0001F927F92DF93CF93BF92AF920E94FB056D
:1009C0008EE00E9416052FEF83EC99E021508040C5
:1009D0009040E1F700C000008091CB01680E8DB718
:1009E0009EB70C960FB6F8949EBF0FBE8DBF5ACF20
:1009F000612C5ACF0E941D042C98449A08952C9A79
:100A00004498089587B18C6387B988B18C7388B98D
:100A1000249A0895439A439808952C984498429AAA
:100A2000429881110E940A050C94FC0498E080FF12
:100A300002C0459A01C045988695429A42989150C5
:100A4000B1F70C940A0520E180FF02C0459A01C06D
:100A5000459896958795429A42982150A9F70C940B
:100A60000A059091C00095FFFCCF8093C6000895C1
:100A70008091C00087FFFCCF8091C60090E0089570
:100A800026E02093C2001092C0009093C50080938E
:100A9000C40088E18093C10008959C0140E050E0CB
:100AA00060E472E48FE090E00E946F05C901019755
:100AB0000E94400560E070E081E395E00E94B0058F
:100AC0009093DC018093DB0168E375E080E090E0C7
:100AD0000E94B0059093DA018093D9010895052E04
:100AE00097FB1EF400940E94860557FD07D00E94D4
:100AF0008E0507FC03D04EF40C9486055095409566
:100B0000309521953F4F4F4F5F4F089590958095B9
:100B1000709561957F4F8F4F9F4F0895A1E21A2ED8
:100B2000AA1BBB1BFD010DC0AA1FBB1FEE1FFF1F91
:100B3000A217B307E407F50720F0A21BB30BE40BE1
:100B4000F50B661F771F881F991F1A9469F7609528
:100B50007095809590959B01AC01BD01CF010895E2
:100B60000F931F93CF93DF93EC018B01009731F428
:100B70006115710519F480E090E038C06EE070E016
:100B800081E090E00E940E08FC010097A1F380E84C
:100B900083830115110571F01387028781E8838330
:100BA0008091D9019091DA01892B21F4F093DA0137
:100BB000E093D9012097C9F0D187C08783818260F3
:100BC00083838091DB019091DC01892B71F4F09398
:100BD000DC01E093DB018091DD019091DE01892B46
:100BE00021F4F093DE01E093DD01CF01DF91CF919D
:100BF0001F910F910895A0E0B0E0E1E0F6E00C94C1
:100C00000E0AFE01359661917191AF018091DB0171
:100C10009091DC010E943C06E2E00C942A0A0F93BA
:100C20001F93CF93DF93E091DB01F091DC012381EF
:100C300021FF1BC0EC0100E010E089916091DB0115
:100C40007091DC01DB011896ED91FC9119978823D6
:100C500031F00995892B89F30FEF1FEFEECF8AE072
:100C60000995892B11F4C80102C08FEF9FEFDF9126
:100C7000CF911F910F910895ACE0B0E0E2E4F6E06F
:100C80000C94FE097C016B018A01FC01178216821B
:100C9000838181FFBDC1CE0101964C01F701938193
:100CA000F60193FD859193FF81916F01882309F4EB
:100CB000ABC1853239F493FD859193FF81916F012A
:100CC000853229F4B70190E00E946E09E7CF512CDC
:100CD000312C20E02032A0F48B3269F030F48032E5
:100CE00059F0833269F420612CC08D3239F08033A1
:100CF00039F4216026C02260246023C0286021C00E
:100D000027FD27C030ED380F3A3078F426FF06C0B3
:100D1000FAE05F9E300D1124532E13C08AE0389EF6
:100D2000300D1124332E20620CC08E3221F426FDAA
:100D30006BC1206406C08C3611F4206802C088366E
:100D400041F4F60193FD859193FF81916F0181112B
:100D5000C1CF982F9F7D9554933028F40C5F1F4F7F
:100D6000FFE3F9830DC0833631F0833771F08335AB
:100D700009F05BC022C0F801808189830E5F1F4F9C
:100D800044244394512C540115C03801F2E06F0EF5
:100D9000711CF801A080B18026FF03C0652D70E0B2
:100DA00002C06FEF7FEFC5012C870E9463092C0101
:100DB00083012C852F77222E17C03801F2E06F0EA9
:100DC000711CF801A080B18026FF03C0652D70E082
:100DD00002C06FEF7FEFC5012C870E9451092C01E3
:100DE0002C852068222E830123FC1BC0832D90E0DC
:100DF00048165906B0F4B70180E290E00E946E09EF
:100E00003A94F4CFF50127FC859127FE81915F018B
:100E1000B70190E00E946E0931103A94F1E04F1A48
:100E200051084114510471F7E5C0843611F0893638
:100E300039F5F80127FF07C06081718182819381B4
:100E40000C5F1F4F08C060817181882777FD8095F6
:100E5000982F0E5F1F4F2F76B22E97FF09C09095E7
:100E60008095709561957F4F8F4F9F4F2068B22E70
:100E70002AE030E0A4010E94A009A82EA81844C0CE
:100E8000853729F42F7EB22E2AE030E025C0F22FDC
:100E9000F97FBF2E8F36C1F018F4883579F0B4C0D1
:100EA000803719F0883721F0AFC02F2F2061B22E84
:100EB000B4FE0DC08B2D8460B82E09C024FF0AC07B
:100EC0009F2F9660B92E06C028E030E005C020E1D3
:100ED00030E002C020E132E0F801B7FE07C06081D7
:100EE0007181828193810C5F1F4F06C06081718187
:100EF00080E090E00E5F1F4FA4010E94A009A82E81
:100F0000A818FB2DFF77BF2EB6FE0BC02B2D2E7F12
:100F1000A51450F4B4FE0AC0B2FC08C02B2D2E7EDE
:100F200005C07A2C2B2D03C07A2C01C0752C24FF10
:100F30000DC0FE01EA0DF11D8081803311F4297E80
:100F400009C022FF06C07394739404C0822F867870
:100F500009F0739423FD13C020FF06C05A2C7314AC
:100F600018F4530C5718732C731468F4B70180E20B
:100F700090E02C870E946E0973942C85F5CF731432
:100F800010F4371801C0312C24FF12C0B70180E3E0
:100F900090E02C870E946E092C8522FF17C021FF4C
:100FA00003C088E590E002C088E790E0B7010CC07C
:100FB000822F867859F021FD02C080E201C08BE2C9
:100FC00027FD8DE2B70190E00E946E09A51438F468
:100FD000B70180E390E00E946E095A94F7CFAA947B
:100FE000F401EA0DF11D8081B70190E00E946E09C5
:100FF000A110F5CF332009F451CEB70180E290E083
:101000000E946E093A94F6CFF7018681978102C05B
:101010008FEF9FEF2C96E2E10C941A0A0F931F9327
:10102000CF93DF93869F8001879F100D969F100DB1
:101030001124C8010E942A08EC01009729F0A80198
:1010400060E070E00E945C09CE01DF91CF911F91BA
:101050000F910895CF93DF938230910510F482E0D1
:1010600090E0E091E101F091E20120E030E0A0E0C9
:10107000B0E0309739F14081518148175907B8F0F5
:101080004817590771F482819381109729F01396BC
:101090009C938E9312972CC09093E2018093E10170
:1010A00027C02115310531F04217530718F0A90167
:1010B000DB0101C0EF019A01BD01DF010280F38174
:1010C000E02DD7CF21153105F9F0281B390B24303D
:1010D000310580F48A819B816115710521F0FB0146
:1010E0009383828304C09093E2018093E101FE0127
:1010F000329644C0FE01E20FF31F81939193225078
:101100003109398328833AC02091DF013091E00111
:10111000232B41F420910201309103013093E0012F
:101120002093DF012091000130910101211531054B
:1011300041F42DB73EB74091040150910501241BA5
:10114000350BE091DF01F091E001E217F307A0F425
:101150002E1B3F0B2817390778F0AC014E5F5F4F0D
:101160002417350748F04E0F5F1F5093E00140935E
:10117000DF018193919302C0E0E0F0E0CF01DF91C5
:10118000CF910895CF93DF93009709F487C0FC01B6
:10119000329713821282C091E101D091E20120972F
:1011A00081F420813181280F391F8091DF019091D6
:1011B000E0018217930779F5F093E001E093DF01F6
:1011C0006DC0DE0120E030E0AE17BF0750F412968C
:1011D0004D915C9113979D014115510509F1DA017B
:1011E000F3CFB383A28340815181840F951F8A1767
:1011F0009B0771F48D919C911197840F951F029616
:101200009183808312968D919C911397938382830F
:101210002115310529F4F093E201E093E1013EC08C
:10122000D9011396FC93EE9312974D915D91A40F03
:10123000B51FEA17FB0779F480819181840F951F10
:101240000296D90111969C938E9382819381139675
:101250009C938E931297E0E0F0E08A819B81009747
:1012600019F0FE01EC01F9CFCE01029628813981F7
:10127000820F931F2091DF013091E0012817390779
:1012800069F4309729F41092E2011092E10102C052
:1012900013821282D093E001C093DF01DF91CF91DE
:1012A0000895FC010590615070400110D8F78095B9
:1012B00090958E0F9F1F0895DC0101C06D934150E2
:1012C0005040E0F70895FC0161507040019001101A
:1012D000D8F7809590958E0F9F1F08950F931F93B9
:1012E000CF93DF93182F092FEB018B8181FD03C072
:1012F0008FEF9FEF20C082FF10C04E815F812C8155
:101300003D81421753077CF4E881F9819F012F5FEB
:101310003F4F39832883108306C0E885F985812FE4
:101320000995892B29F72E813F812F5F3F4F3F83FE
:101330002E83812F902FDF91CF911F910F910895D0
:10134000FA01AA27283051F1203181F1E8946F93F6
:101350006E7F6E5F7F4F8F4F9F4FAF4FB1E03ED09C
:10136000B4E03CD0670F781F891F9A1FA11D680F3A
:10137000791F8A1F911DA11D6A0F711D811D911D6D
:10138000A11D20D009F468943F912AE0269F1124E2
:101390003019305D3193DEF6CF010895462F477046
:1013A000405D4193B3E00FD0C9F7F6CF462F4F70A1
:1013B000405D4A3318F0495D31FD4052419302D0FF
:1013C000A9F7EACFB4E0A6959795879577956795A5
:1013D000BA95C9F700976105710508959B01AC01A5
:1013E0000A2E06945795479537952795BA95C9F7CC
:1013F000620F731F841F951FA01D08952F923F92A7
:101400004F925F926F927F928F929F92AF92BF9214
:10141000CF92DF92EF92FF920F931F93CF93DF93C0
:10142000CDB7DEB7CA1BDB0B0FB6F894DEBF0FBE1D
:10143000CDBF09942A88398848885F846E847D846A
:101440008C849B84AA84B984C884DF80EE80FD806C
:101450000C811B81AA81B981CE0FD11D0FB6F894E2
:0E146000DEBF0FBECDBFED010895F894FFCFA3
:10146E000000E301200001537465705F4A756D70D2
:10147E003D2025640A00496E697469616C697A655C
:10148E006400537465702025642053696E5F506844
:10149E006173655F4120256420616E64202053696D
:1014AE006E5F50686173655F410820256400537458
:1014BE006570202564204E6F726D616C20647269B8
:1014CE0076696E67207061747465726E2025780A75
:1014DE00005374657020256420317374207061721E
:1014EE0074206F66204D6978656420446563617968
:1014FE00206C6F6164696E672025780A00537465ED
:10150E007020256420326E642070617274206F66C4
:10151E00204D69786564204465636179206C6F6144
:0A152E0064696E672025780A00004A
:00000001FF
