:100000000C9438020C946B020C9455020C9455021B
:100010000C9455020C9455020C9455020C94550204
:100020000C9455020C9433030C9455020C94550215
:100030000C9455020C94D8020C9455020C94550261
:100040000C94B3030C9455020C9455020C94550275
:100050000C9455020C94C7030C9455020C94550251
:100060000C9455020C94550201010101010101019A
:100070000101010101010101010101010101010170
:100080000101010101010101010000000000000067
:100090000000000000000000000000000000000060
:1000A0000000000000000000010101010101010148
:1000B0000101010101010101010101010101010130
:1000C0000101010101010101010000000000000027
:1000D0000000000000000000000000000000000020
:1000E0000000000000000000000000000000000010
:1000F0000000000000000000000000000000000000
:1001000000000000000000000001010101010101E8
:1001100001010101010101010101010101010101CF
:1001200001010101010101010100000000000000C6
:1001300000000000000000000000000000000000BF
:1001400000000000000000000001010101010101A8
:10015000010101010101010101010101010101018F
:100160000101010101010101011008040000000268
:100170009C9C9C9C9C9C9C9C9C9C9C9C9C9C9C9CBF
:100180009C9C9C9C9C9C9C9C9C9C9C9C9C9C9C9CAF
:100190009C5C5C5C5C5C5C5C5C5C5C5C5C5C5C5C5F
:1001A0005C5C5C5C5C5C5C5C5C5C5C5C5C5C5C5C8F
:1001B0005C6C6C6C6C6C6C6C6C6C6C6C6C6C6C6C8F
:1001C0006C6C6C6C6C6C6C6C6C6C6C6C6C6C6C6C6F
:1001D0006CACACACACACACACACACACACACACACAC9F
:1001E000ACACACACACACACACACACACACACACACAC4F
:1001F000ACACACACACACACACACACACACACACACAC3F
:10020000ACACACACACACACACACACACACACACACAC2E
:10021000AC6C6C6C6C6C6C6C6C6C6C6C6C6C6C6CDE
:100220006C6C6C6C6C6C6C6C6C6C6C6C6C6C6C6C0E
:100230006C5C5C5C5C5C5C5C5C5C5C5C5C5C5C5CEE
:100240005C5C5C5C5C5C5C5C5C5C5C5C5C5C5C5CEE
:100250005C9C9C9C9C9C9C9C9C9C9C9C9C9C9C9C1E
:100260009C9C9C9C9C9C9C9C9C9C9C9C9C9C9C9CCE
:1002700000003300510067007C008F00A300B6002F
:10028000C800DB00EE000001120130014E016D01DB
:100290008F018F018F018F018F018F018F018F01DE
:1002A0008F018F018F018F018F018F018F018F01CE
:1002B0008F018F018F018F018F018F018F018F01BE
:1002C0008F018F018F018F018F018F018F018F01AE
:1002D0008F016D014E01300112010001EE00DB00C3
:1002E000C800B600A3008F007C00670051003300F7
:1002F00000003300510067007C008F00A300B600AF
:10030000C800DB00EE000001120130014E016D015A
:100310008F018F018F018F018F018F018F018F015D
:100320008F018F018F018F018F018F018F018F014D
:100330008F018F018F018F018F018F018F018F013D
:100340008F018F018F018F018F018F018F018F012D
:100350008F016D014E01300112010001EE00DB0042
:10036000C800B600A3008F007C0067005100330076
:100370008F018F018F018F018F018F018F018F01FD
:100380008F018F018F018F018F018F018F018F01ED
:100390008F016D014E01300112010001EE00DB0002
:1003A000C800B600A3008F007C0067005100330036
:1003B00000003300510067007C008F00A300B600EE
:1003C000C800DB00EE000001120130014E016D019A
:1003D0008F018F018F018F018F018F018F018F019D
:1003E0008F018F018F018F018F018F018F018F018D
:1003F0008F018F018F018F018F018F018F018F017D
:100400008F018F018F018F018F018F018F018F016C
:100410008F016D014E01300112010001EE00DB0081
:10042000C800B600A3008F007C00670051003300B5
:1004300000003300510067007C008F00A300B6006D
:10044000C800DB00EE000001120130014E016D0119
:100450008F018F018F018F018F018F018F018F011C
:100460008F018F018F018F018F018F018F018F010C
:1004700011241FBECFEFD8E0DEBFCDBF12E0A0E059
:10048000B1E0E6E4F5E102C005900D92A634B107B3
:10049000D9F712E0A6E4B2E001C01D92AF35B10772
:1004A000E1F70E94E3040C94A10A0C9400008AB1C5
:1004B0008F788AB98AB1837F8AB95A9A5798259AD0
:1004C0000895E9E6F0E080818260808380818E7FFC
:1004D0008083E89A08951F920F920FB60F9211240D
:1004E0008F939F93EF93FF934F9B3DC085B190E215
:1004F000892785B99091480280914702890F80939E
:1005000048028091480287FD10924802E09148021B
:10051000F0E0EE0FFF1FE059FD4F8591949190930D
:10052000530280935202E0914802F0E0EE0FFF1F69
:10053000E059FC4F85919491909351028093500221
:100540004B9B06C0E0914802F0E0E051FE4F05C031
:10055000E0914802F0E0E059FE4FE491E09354024C
:1005600081E080934F02FF91EF919F918F910F90C7
:100570000FBE0F901F901895E9B1E077F0E024E0EE
:10058000F595E7952A95E1F7E859FE4FE491E09358
:100590004702809147021F928F9387E091E09F93DB
:1005A0008F930E9467060F900F900F900F90089501
:1005B0001F920F920FB60F9211242F933F934F93D8
:1005C0005F936F937F938F939F93AF93BF93EF93BB
:1005D000FF938091500290915102909389008093F3
:1005E0008800809152029091530290938B008093E7
:1005F0008A00809154020E948205FF91EF91BF9181
:10060000AF919F918F917F916F915F914F913F91AA
:100610002F910F900FBE0F901F901895E1E8F0E01A
:10062000808188618083A0E8B0E08C918E7F8C937C
:100630008C91826B8C93AFE6B0E08C9181608C934F
:1006400080E991E0909387008093860087E690E0B0
:10065000909351028093500280818160808384B1A5
:10066000866084B908951F920F920FB60F921124DD
:100670002F933F934F935F936F937F938F939F93AA
:10068000AF93BF93EF93FF93809146028F5F809368
:100690004602809146028B3010F010924602809103
:1006A0004602863019F482E00E948205809146025B
:1006B000873020F180914602893000F590915402F4
:1006C000E0914802F0E0E851FF4FE491E11105C0EC
:1006D0009E7F9E6080EC982702C09E739E60E09192
:1006E0004802F0E0E859FF4FE491E11103C080E3D4
:1006F000892702C0892F8F7C0E9482058091460243
:10070000893058F0809146028B3038F4809148024D
:10071000809148028EE00E94820585EF8093B200AE
:10072000FF91EF91BF91AF919F918F917F916F91C9
:100730005F914F913F912F910F900FBE0F901F909F
:10074000189585EF8093B200109246021092B00087
:10075000E0E7F0E0808181608083E1EBF0E0808180
:100760008260808308951F920F920FB60F9211241A
:100770000F900FBE0F901F90189514BCEEE6F0E09E
:1007800080818160808385B5856085BD08951F92D5
:100790000F920FB60F9211242F938F939F938091F6
:1007A00006018823A9F010920601809178009091AB
:1007B000790090934A028093490280917C00826084
:1007C00080937C0081E080934E028EEF86BD13C043
:1007D00021E0209306018091780090917900909318
:1007E0004C0280934B0280917C008D7F80937C0033
:1007F00016BC20934D029F918F912F910F900FBEA9
:100800000F901F901895EAE7F0E080818868808358
:100810000895EAE7F0E080818083089580E4809382
:100820007C00EEE7F0E080818360808384E0809349
:100830007B0082E280937A000895CF9380E895E26E
:100840000E94B9050E946E0581E00E9479050E9410
:1008500068050E940E030E9457020E9461020E94D6
:10086000BC020E940E040E9403040E94BD0386E1A4
:1008700091E00E947B0681E080934702E09148026C
:10088000F0E0EE0FFF1FE059FD4F8591949190939A
:10089000530280935202E0914802F0E0EE0FFF1FF6
:1008A000E059FC4F859194919093510280935002AE
:1008B0009093890080938800809152029091530216
:1008C00090938B0080938A0020918A0030918B0056
:1008D0008091880090918900409148023F932F9326
:1008E0009F938F931F924F9382E291E09F938F93F8
:1008F0000E946706E0914802F0E0E051FE4FC4918B
:100900008C2F0E948205809148021F92CF931F92E4
:100910008F932EE431E03F932F930E94670682E08D
:100920000E948205E0914802F0E0E851FF4FE49117
:100930008DB79EB70E960FB6F8949EBF0FBE8DBFB3
:100940009C2FE11105C09E7F9E6080EC982702C01D
:100950009E739E60E0914802F0E0E859FF4FE491F9
:10096000E11103C0C0E3C92702C0C92FCF7C8C2F7F
:100970000E948205809148021F92CF931F928F930D
:1009800081E791E09F938F930E94670680914802D0
:1009900080914802809148021F929EE09F931F928F
:1009A0008F938DE991E09F938F930E9467068DB797
:1009B0009EB70C960FB6F8949EBF0FBE8DBF8EE00B
:1009C000CF910C94820580E895E20E94B9050E94BF
:1009D0006E0581E00E9479050E9468050E940E0361
:1009E0000E9457020E9461020E94BC020E940E04F3
:1009F0000E9403040E94BD0386E191E00E947B06F1
:100A0000789409EC11E054E1E52E52E0F52ECDE2A8
:100A1000D2E080914F02882359F18FB7F894109259
:100A20004F028FBF99B180914802209154021F92CA
:100A30002F93209153022F93209152022F932091B4
:100A400051022F93209150022F9393FB992790F9F5
:100A50001F929F931F928F931F930F930E9467067D
:100A60008DB79EB70C960FB6F8949EBF0FBE8DBF84
:100A700080914E02882399F08FB7F89410924E021D
:100A80008FBF8091490290914A029F938F93FF926A
:100A9000EF920E9467060F900F900F900F90809139
:100AA0004D02882309F4B5CF8FB7F89410924D0208
:100AB0008FBF80914B0290914C029F938F93DF9355
:100AC000CF930E9467060F900F900F900F90A1CFC9
:100AD0002C98449A08952C9A4498089587B18C6371
:100AE00087B988B18C7388B9249A0895439A43983A
:100AF00008952C984498429A429881110E94760554
:100B00000C94680598E080FF02C0459A01C04598A2
:100B10008695429A42989150B1F70C94760520E15F
:100B200080FF02C0459A01C0459896958795429AE4
:100B300042982150A9F70C9476059091C00095FF3A
:100B4000FCCF8093C60008958091C00087FFFCCF42
:100B50008091C60090E0089526E02093C200109294
:100B6000C0009093C5008093C40088E18093C100C9
:100B700008959C0140E050E060E472E48FE090E072
:100B80000E94DB05C90101970E94AC0560E070E09E
:100B90008DE995E00E941C069093580280935702BD
:100BA00064EA75E080E090E00E941C069093560293
:100BB000809355020895052E97FB1EF400940E9421
:100BC000F20557FD07D00E94FA0507FC03D04EF44A
:100BD0000C94F20550954095309521953F4F4F4F1D
:100BE0005F4F089590958095709561957F4F8F4FD9
:100BF0009F4F0895A1E21A2EAA1BBB1BFD010DC039
:100C0000AA1FBB1FEE1FFF1FA217B307E407F507BC
:100C100020F0A21BB30BE40BF50B661F771F881F98
:100C2000991F1A9469F760957095809590959B012E
:100C3000AC01BD01CF0108950F931F93CF93DF93B4
:100C4000EC018B01009731F46115710519F480E016
:100C500090E038C06EE070E081E090E00E947A0899
:100C6000FC010097A1F380E883830115110571F061
:100C70001387028781E88383809155029091560201
:100C8000892B21F4F0935602E09355022097C9F086
:100C9000D187C0878381826083838091570290913E
:100CA0005802892B71F4F0935802E0935702809117
:100CB000590290915A02892B21F4F0935A02E09341
:100CC0005902CF01DF91CF911F910F910895A0E0BC
:100CD000B0E0EDE6F6E00C947A0AFE0135966191FB
:100CE0007191AF0180915702909158020E94A8061D
:100CF000E2E00C94960A0F931F93CF93DF93E09159
:100D00005702F0915802238121FF1BC0EC0100E043
:100D100010E089916091570270915802DB0118969A
:100D2000ED91FC911997882331F00995892B89F36E
:100D30000FEF1FEFEECF8AE00995892B11F4C80160
:100D400002C08FEF9FEFDF91CF911F910F91089518
:100D5000ACE0B0E0EEEAF6E00C946A0A7C016B01CC
:100D60008A01FC0117821682838181FFBDC1CE01F9
:100D700001964C01F7019381F60193FD859193FF54
:100D800081916F01882309F4ABC1853239F493FD59
:100D9000859193FF81916F01853229F4B70190E02D
:100DA0000E94DA09E7CF512C312C20E02032A0F448
:100DB0008B3269F030F4803259F0833269F420616B
:100DC0002CC08D3239F0803339F4216026C0226086
:100DD000246023C0286021C027FD27C030ED380FD4
:100DE0003A3078F426FF06C0FAE05F9E300D1124F9
:100DF000532E13C08AE0389E300D1124332E20620A
:100E00000CC08E3221F426FD6BC1206406C08C36E6
:100E100011F4206802C0883641F4F60193FD8591F3
:100E200093FF81916F018111C1CF982F9F7D9554C0
:100E3000933028F40C5F1F4FFFE3F9830DC0833616
:100E400031F0833771F0833509F05BC022C0F801BF
:100E5000808189830E5F1F4F44244394512C540199
:100E600015C03801F2E06F0E711CF801A080B1804E
:100E700026FF03C0652D70E002C06FEF7FEFC50154
:100E80002C870E94CF092C0183012C852F77222EDD
:100E900017C03801F2E06F0E711CF801A080B1801C
:100EA00026FF03C0652D70E002C06FEF7FEFC50124
:100EB0002C870E94BD092C012C852068222E8301DD
:100EC00023FC1BC0832D90E048165906B0F4B701EF
:100ED00080E290E00E94DA093A94F4CFF50127FC11
:100EE000859127FE81915F01B70190E00E94DA09A8
:100EF00031103A94F1E04F1A51084114510471F73E
:100F0000E5C0843611F0893639F5F80127FF07C0AE
:100F100060817181828193810C5F1F4F08C0608165
:100F20007181882777FD8095982F0E5F1F4F2F7650
:100F3000B22E97FF09C090958095709561957F4F6F
:100F40008F4F9F4F2068B22E2AE030E0A4010E940C
:100F50000C0AA82EA81844C0853729F42F7EB22E7B
:100F60002AE030E025C0F22FF97FBF2E8F36C1F086
:100F700018F4883579F0B4C0803719F0883721F03B
:100F8000AFC02F2F2061B22EB4FE0DC08B2D846018
:100F9000B82E09C024FF0AC09F2F9660B92E06C044
:100FA00028E030E005C020E130E002C020E132E07E
:100FB000F801B7FE07C060817181828193810C5F67
:100FC0001F4F06C06081718180E090E00E5F1F4F6F
:100FD000A4010E940C0AA82EA818FB2DFF77BF2E93
:100FE000B6FE0BC02B2D2E7FA51450F4B4FE0AC004
:100FF000B2FC08C02B2D2E7E05C07A2C2B2D03C0F1
:101000007A2C01C0752C24FF0DC0FE01EA0DF11DE4
:101010008081803311F4297E09C022FF06C07394B9
:10102000739404C0822F867809F0739423FD13C053
:1010300020FF06C05A2C731418F4530C5718732C45
:10104000731468F4B70180E290E02C870E94DA09FB
:1010500073942C85F5CF731410F4371801C0312C1C
:1010600024FF12C0B70180E390E02C870E94DA09C8
:101070002C8522FF17C021FF03C088E590E002C045
:1010800088E790E0B7010CC0822F867859F021FDE7
:1010900002C080E201C08BE227FD8DE2B70190E043
:1010A0000E94DA09A51438F4B70180E390E00E94A9
:1010B000DA095A94F7CFAA94F401EA0DF11D808160
:1010C000B70190E00E94DA09A110F5CF332009F4AE
:1010D00051CEB70180E290E00E94DA093A94F6CF4F
:1010E000F7018681978102C08FEF9FEF2C96E2E196
:1010F0000C94860A0F931F93CF93DF93869F8001F2
:10110000879F100D969F100D1124C8010E9496080C
:10111000EC01009729F0A80160E070E00E94C80986
:10112000CE01DF91CF911F910F910895CF93DF935F
:101130008230910510F482E090E0E0915D02F09140
:101140005E0220E030E0A0E0B0E0309739F140816D
:10115000518148175907B8F04817590771F482812F
:101160009381109729F013969C938E9312972CC01D
:1011700090935E0280935D0227C02115310531F006
:101180004217530718F0A901DB0101C0EF019A01D2
:10119000BD01DF010280F381E02DD7CF211531059C
:1011A000F9F0281B390B2430310580F48A819B81AA
:1011B0006115710521F0FB019383828304C0909334
:1011C0005E0280935D02FE01329644C0FE01E20F92
:1011D000F31F8193919322503109398328833AC0B8
:1011E00020915B0230915C02232B41F4209102019B
:1011F0003091030130935C0220935B022091000147
:10120000309101012115310541F42DB73EB74091D0
:10121000040150910501241B350BE0915B02F09114
:101220005C02E217F307A0F42E1B3F0B28173907C7
:1012300078F0AC014E5F5F4F2417350748F04E0F32
:101240005F1F50935C0240935B028193919302C0B5
:10125000E0E0F0E0CF01DF91CF910895CF93DF93ED
:10126000009709F487C0FC01329713821282C09163
:101270005D02D0915E02209781F420813181280F98
:10128000391F80915B0290915C028217930779F578
:10129000F0935C02E0935B026DC0DE0120E030E081
:1012A000AE17BF0750F412964D915C9113979D01B4
:1012B0004115510509F1DA01F3CFB383A2834081CF
:1012C0005181840F951F8A179B0771F48D919C9112
:1012D0001197840F951F02969183808312968D91AA
:1012E0009C911397938382832115310529F4F09300
:1012F0005E02E0935D023EC0D9011396FC93EE932B
:1013000012974D915D91A40FB51FEA17FB0779F471
:1013100080819181840F951F0296D90111969C932B
:101320008E938281938113969C938E931297E0E023
:10133000F0E08A819B81009719F0FE01EC01F9CF62
:10134000CE01029628813981820F931F20915B0282
:1013500030915C022817390769F4309729F410920C
:101360005E0210925D0202C013821282D0935C0270
:10137000C0935B02DF91CF910895FC01059061500D
:1013800070400110D8F7809590958E0F9F1F08959B
:10139000DC0101C06D9341505040E0F70895FC011D
:1013A0006150704001900110D8F7809590958E0F94
:1013B0009F1F08950F931F93CF93DF93182F092F2B
:1013C000EB018B8181FD03C08FEF9FEF20C082FF77
:1013D00010C04E815F812C813D81421753077CF400
:1013E000E881F9819F012F5F3F4F39832883108364
:1013F00006C0E885F985812F0995892B29F72E816B
:101400003F812F5F3F4F3F832E83812F902FDF91AE
:10141000CF911F910F910895FA01AA27283051F119
:10142000203181F1E8946F936E7F6E5F7F4F8F4F15
:101430009F4FAF4FB1E03ED0B4E03CD0670F781F74
:10144000891F9A1FA11D680F791F8A1F911DA11D59
:101450006A0F711D811D911DA11D20D009F4689492
:101460003F912AE0269F11243019305D3193DEF63A
:10147000CF010895462F4770405D4193B3E00FD0F0
:10148000C9F7F6CF462F4F70405D4A3318F0495DDB
:1014900031FD4052419302D0A9F7EACFB4E0A695BE
:1014A0009795879577956795BA95C9F700976105E0
:1014B000710508959B01AC010A2E06945795479536
:1014C00037952795BA95C9F7620F731F841F951F2B
:1014D000A01D08952F923F924F925F926F927F923C
:1014E0008F929F92AF92BF92CF92DF92EF92FF9234
:1014F0000F931F93CF93DF93CDB7DEB7CA1BDB0BE0
:101500000FB6F894DEBF0FBECDBF09942A88398884
:1015100048885F846E847D848C849B84AA84B9848B
:10152000C884DF80EE80FD800C811B81AA81B98197
:10153000CE0FD11D0FB6F894DEBF0FBECDBFED01AB
:061540000895F894FFCFAE
:1015460000005F02200001537465705F4A756D707C
:101556003D2025640A00496E697469616C697A6583
:101566006400537465702025642053696E5F50686B
:101576006173655F4120256420616E642020536994
:101586006E5F50686173655F41082025640053747F
:101596006570202564204E6F726D616C20647269DF
:1015A60076696E67207061747465726E2025780A9C
:1015B6000053746570202564203173742070617245
:1015C60074206F66204D697865642044656361798F
:1015D600206C6F6164696E672025780A0053746514
:1015E6007020256420326E642070617274206F66EC
:1015F600204D69786564204465636179206C6F616C
:1016060064696E672025780A0053746570206E75CC
:101616006D62657220256420446972656374696F22
:101626006E2025642053696E5068617365412025DC
:10163600642053696E5068617365422025642053A7
:101646006869667420526567204461746120307849
:1016560025780A0053656E73653031202F2041448A
:1016660043302076616C75652025640A0053656EEB
:1016760073653032202F20414443312076616C75EA
:06168600652025640A0046
:00000001FF
