:100000000C94B8020C94EB020C94D5020C94D5021B
:100010000C94D5020C94D5020C94D5020C94D50204
:100020000C94D5020C94B3030C94D5020C94D50215
:100030000C94D5020C9458030C94D5020C94D50260
:100040000C9405040C94D5020C94D5020C94D502A2
:100050000C94D5020C9419040C94D5020C94D5027E
:100060000C94D5020C94D50201010101010101019A
:100070000101010101010101010101010101010170
:100080000101010101010101020202020202020258
:100090000202020202020202020202020202020240
:1000A0000202020202020202010101010101010138
:1000B0000101010101010101010101010101010130
:1000C0000101010101010101020202020202020218
:1000D0000202020202020202020202020202020200
:1000E00002020202020202020101010101010101F8
:1000F00001010101010101010101010101010101F0
:1001000001010101010101010102020202020202D8
:1001100002020202020202020202020202020202BF
:1001200002020202020202020101010101010101B7
:1001300001010101010101010101010101010101AF
:100140000101010101010101010202020202020298
:10015000020202020202020202020202020202027F
:10016000020202020202020202020202020202026F
:10017000020202020202020202020202020202025F
:100180000202020202020202010101010101010157
:10019000010101010101010101010101010101014F
:1001A0000101010101010101020202020202020237
:1001B000020202020202020202020202020202021F
:1001C0000202020202020202010101010101010117
:1001D000010101010101010101010101010101010F
:1001E00001010101010101010202020202020202F7
:1001F00002020202020202020202020202020202DF
:1002000002020202020202020201010101010101D5
:1002100001010101010101010101010101010101CE
:1002200001010101010101010102020202020202B7
:10023000020202020202020202020202020202029E
:100240000202020202020202020101010101010195
:10025000010101010101010101010101010101018E
:100260000101010101010101011008040000000267
:100270009C9C9C9C9C9C9C9C9C9C9C9C9C9C9C9CBE
:100280009C9C9C9C9C9C9C9C9C9C9C9C9C9C9C9CAE
:100290009C5C5C5C5C5C5C5C5C5C5C5C5C5C5C5C5E
:1002A0005C5C5C5C5C5C5C5C5C5C5C5C5C5C5C5C8E
:1002B0005C6C6C6C6C6C6C6C6C6C6C6C6C6C6C6C8E
:1002C0006C6C6C6C6C6C6C6C6C6C6C6C6C6C6C6C6E
:1002D0006CACACACACACACACACACACACACACACAC9E
:1002E000ACACACACACACACACACACACACACACACAC4E
:1002F000ACACACACACACACACACACACACACACACAC3E
:10030000ACACACACACACACACACACACACACACACAC2D
:10031000AC6C6C6C6C6C6C6C6C6C6C6C6C6C6C6CDD
:100320006C6C6C6C6C6C6C6C6C6C6C6C6C6C6C6C0D
:100330006C5C5C5C5C5C5C5C5C5C5C5C5C5C5C5CED
:100340005C5C5C5C5C5C5C5C5C5C5C5C5C5C5C5CED
:100350005C9C9C9C9C9C9C9C9C9C9C9C9C9C9C9C1D
:100360009C9C9C9C9C9C9C9C9C9C9C9C9C9C9C9CCD
:1003700000003300510067007C008F00A300B6002E
:10038000C800DB00EE000001120130014E016D01DA
:100390008F018F018F018F018F018F018F018F01DD
:1003A0008F018F018F018F018F018F018F018F01CD
:1003B0008F018F018F018F018F018F018F018F01BD
:1003C0008F018F018F018F018F018F018F018F01AD
:1003D0008F016D014E01300112010001EE00DB00C2
:1003E000C800B600A3008F007C00670051003300F6
:1003F00000003300510067007C008F00A300B600AE
:10040000C800DB00EE000001120130014E016D0159
:100410008F018F018F018F018F018F018F018F015C
:100420008F018F018F018F018F018F018F018F014C
:100430008F018F018F018F018F018F018F018F013C
:100440008F018F018F018F018F018F018F018F012C
:100450008F016D014E01300112010001EE00DB0041
:10046000C800B600A3008F007C0067005100330075
:100470008F018F018F018F018F018F018F018F01FC
:100480008F018F018F018F018F018F018F018F01EC
:100490008F016D014E01300112010001EE00DB0001
:1004A000C800B600A3008F007C0067005100330035
:1004B00000003300510067007C008F00A300B600ED
:1004C000C800DB00EE000001120130014E016D0199
:1004D0008F018F018F018F018F018F018F018F019C
:1004E0008F018F018F018F018F018F018F018F018C
:1004F0008F018F018F018F018F018F018F018F017C
:100500008F018F018F018F018F018F018F018F016B
:100510008F016D014E01300112010001EE00DB0080
:10052000C800B600A3008F007C00670051003300B4
:1005300000003300510067007C008F00A300B6006C
:10054000C800DB00EE000001120130014E016D0118
:100550008F018F018F018F018F018F018F018F011B
:100560008F018F018F018F018F018F018F018F010B
:1005700011241FBECFEFD8E0DEBFCDBF11E0A0E059
:10058000B1E0ECE6F3E102C005900D92AC36B107A4
:10059000D9F711E0ACE6B1E001C01D92AF37B10769
:1005A000E1F70E9430040C94B4090C9400008AB165
:1005B0008F788AB98AB1837F8AB95A9A5798259ACF
:1005C0000895E9E6F0E080818260808380818E7FFB
:1005D0008083E89A08951F920F920FB60F9211240C
:1005E0008F939F93EF93FF934F9B3DC085B190E214
:1005F000892785B990916E0180916D01890F809353
:100600006E0180916E0187FD10926E01E0916E0186
:10061000F0E0EE0FFF1FE059FC4F8591949190930D
:10062000730180937201E0916E01F0E0EE0FFF1F05
:10063000E059FB4F859194919093710180937001E3
:100640004B9B06C0E0916E01F0E0E051FD4F05C00C
:10065000E0916E01F0E0E059FD4FE491E093740108
:1006600081E080936F01FF91EF919F918F910F90A7
:100670000FBE0F901F901895E9B1E077F0E024E0ED
:10068000F595E7952A95E1F7E859FD4FE491E09358
:100690006D0180916D011F928F9386E091E09F9391
:1006A0008F930E947A050F900F900F900F900895EE
:1006B0001F920F920FB60F9211242F933F934F93D7
:1006C0005F936F937F938F939F93AF93BF93EF93BA
:1006D000FF938091700190917101909389008093B4
:1006E0008800809172019091730190938B008093A8
:1006F0008A00809174010E949504FF91EF91BF914F
:10070000AF919F918F917F916F915F914F913F91A9
:100710002F910F900FBE0F901F901895E1E8F0E019
:10072000808188618083A0E8B0E08C918E7F8C937B
:100730008C91826B8C93AFE6B0E08C9181608C934E
:1007400080E991E0909387008093860087E690E0AF
:10075000909371018093700180818160808384B166
:10076000866084B908951F920F920FB60F921124DC
:100770002F933F934F935F936F937F938F939F93A9
:10078000AF93BF93EF93FF9380916C018F5F809342
:100790006C0180916C018B3010F010926C01809193
:1007A0006C01863019F482E00E94950480916C01FE
:1007B000873010F080916C0180916C01893010F0CD
:1007C00080916C01FF91EF91BF91AF919F918F91BB
:1007D0007F916F915F914F913F912F910F900FBE3D
:1007E0000F901F90189585EF8093B20010926C01C6
:1007F0001092B000E0E7F0E0808181608083E1EB5F
:10080000F0E080818260808308951F920F920FB67E
:100810000F9211240F900FBE0F901F90189514BCCB
:10082000EEE6F0E080818160808385B5816085BDE2
:1008300008951F920F920FB60F9211240F900FBEC2
:100840000F901F90189580E480937C0083E0809344
:100850007E0084E080937B008AEA80937A0008958A
:1008600080E895E20E94CC040E94810481E00E940D
:100870008C040E947B040E948E030E94D7020E9477
:10088000E1020E943C0385E191E00E948E0578948C
:10089000C1E2D1E080916F01811101C0FFCF8FB71C
:1008A000F89410926F018FBF99B180916E012091E1
:1008B00074011F922F93209173012F932091720145
:1008C0002F93209171012F93209170012F9393FB0F
:1008D000992790F91F929F931F928F93DF93CF9345
:1008E0000E947A058DB79EB70C960FB6F8949EBFFE
:1008F0000FBE8DBFCFCF2C98449A08952C9A449860
:10090000089587B18C6387B988B18C7388B9249AAC
:100910000895439A439808952C984498429A42988F
:1009200081110E9489040C947B0498E080FF02C02E
:10093000459A01C045988695429A42989150B1F7E0
:100940000C94890420E180FF02C0459A01C04598BB
:1009500096958795429A42982150A9F70C9489045C
:100960009091C00095FFFCCF8093C60008958091C0
:10097000C00087FFFCCF8091C60090E0089526E07C
:100980002093C2001092C0009093C5008093C400D1
:1009900088E18093C10008959C0140E050E060E44C
:1009A00072E48FE090E00E94EE04C90101970E947A
:1009B000BF0460E070E080EB94E00E942F0590930C
:1009C00078018093770167EB74E080E090E00E940B
:1009D0002F0590937601809375010895052E97FB5E
:1009E0001EF400940E94050557FD07D00E940D05D6
:1009F00007FC03D04EF40C940505509540953095B6
:100A000021953F4F4F4F5F4F08959095809570957A
:100A100061957F4F8F4F9F4F0895A1E21A2EAA1B19
:100A2000BB1BFD010DC0AA1FBB1FEE1FFF1FA2179E
:100A3000B307E407F50720F0A21BB30BE40BF50B9B
:100A4000661F771F881F991F1A9469F76095709524
:100A5000809590959B01AC01BD01CF0108950F9346
:100A60001F93CF93DF93EC018B01009731F4611555
:100A7000710519F480E090E038C06EE070E081E02C
:100A800090E00E948D07FC010097A1F380E883832A
:100A90000115110571F01387028781E88383809126
:100AA000750190917601892B21F4F0937601E09302
:100AB00075012097C9F0D187C087838182608383C5
:100AC0008091770190917801892B71F4F0937801EE
:100AD000E09377018091790190917A01892B21F43B
:100AE000F0937A01E0937901CF01DF91CF911F91CB
:100AF0000F910895A0E0B0E0E0E8F5E00C948D09D6
:100B0000FE01359661917191AF01809177019091CD
:100B100078010E94BB05E2E00C94A9090F931F9392
:100B2000CF93DF93E0917701F0917801238121FF4A
:100B30001BC0EC0100E010E0899160917701709199
:100B40007801DB011896ED91FC911997882331F01B
:100B50000995892B89F30FEF1FEFEECF8AE00995F6
:100B6000892B11F4C80102C08FEF9FEFDF91CF9165
:100B70001F910F910895ACE0B0E0E1ECF5E00C942A
:100B80007D097C016B018A01FC0117821682838139
:100B900081FFBDC1CE0101964C01F7019381F601A1
:100BA00093FD859193FF81916F01882309F4ABC177
:100BB000853239F493FD859193FF81916F018532E0
:100BC00029F4B70190E00E94ED08E7CF512C312CB9
:100BD00020E02032A0F48B3269F030F4803259F0FA
:100BE000833269F420612CC08D3239F0803339F4BE
:100BF000216026C02260246023C0286021C027FD18
:100C000027C030ED380F3A3078F426FF06C0FAE0FE
:100C10005F9E300D1124532E13C08AE0389E300D94
:100C20001124332E20620CC08E3221F426FD6BC1BC
:100C3000206406C08C3611F4206802C0883641F466
:100C4000F60193FD859193FF81916F018111C1CFD1
:100C5000982F9F7D9554933028F40C5F1F4FFFE32E
:100C6000F9830DC0833631F0833771F0833509F095
:100C70005BC022C0F801808189830E5F1F4F44242E
:100C80004394512C540115C03801F2E06F0E711CD1
:100C9000F801A080B18026FF03C0652D70E002C07E
:100CA0006FEF7FEFC5012C870E94E2082C018301C2
:100CB0002C852F77222E17C03801F2E06F0E711CA1
:100CC000F801A080B18026FF03C0652D70E002C04E
:100CD0006FEF7FEFC5012C870E94D0082C012C8577
:100CE0002068222E830123FC1BC0832D90E0481630
:100CF0005906B0F4B70180E290E00E94ED083A9402
:100D0000F4CFF50127FC859127FE81915F01B701A2
:100D100090E00E94ED0831103A94F1E04F1A51082A
:100D20004114510471F7E5C0843611F0893639F564
:100D3000F80127FF07C060817181828193810C5F78
:100D40001F4F08C060817181882777FD8095982F9B
:100D50000E5F1F4F2F76B22E97FF09C0909580959A
:100D6000709561957F4F8F4F9F4F2068B22E2AE07C
:100D700030E0A4010E941F09A82EA81844C085379E
:100D800029F42F7EB22E2AE030E025C0F22FF97F21
:100D9000BF2E8F36C1F018F4883579F0B4C0803793
:100DA00019F0883721F0AFC02F2F2061B22EB4FE8A
:100DB0000DC08B2D8460B82E09C024FF0AC09F2F60
:100DC0009660B92E06C028E030E005C020E130E092
:100DD00002C020E132E0F801B7FE07C060817181F6
:100DE000828193810C5F1F4F06C06081718180E01A
:100DF00090E00E5F1F4FA4010E941F09A82EA818A3
:100E0000FB2DFF77BF2EB6FE0BC02B2D2E7FA5141A
:100E100050F4B4FE0AC0B2FC08C02B2D2E7E05C0D3
:100E20007A2C2B2D03C07A2C01C0752C24FF0DC009
:100E3000FE01EA0DF11D8081803311F4297E09C085
:100E400022FF06C07394739404C0822F867809F041
:100E5000739423FD13C020FF06C05A2C731418F49A
:100E6000530C5718732C731468F4B70180E290E0A8
:100E70002C870E94ED0873942C85F5CF731410F421
:100E8000371801C0312C24FF12C0B70180E390E075
:100E90002C870E94ED082C8522FF17C021FF03C07C
:100EA00088E590E002C088E790E0B7010CC0822F8F
:100EB000867859F021FD02C080E201C08BE227FD57
:100EC0008DE2B70190E00E94ED08A51438F4B70157
:100ED00080E390E00E94ED085A94F7CFAA94F401C1
:100EE000EA0DF11D8081B70190E00E94ED08A1108C
:100EF000F5CF332009F451CEB70180E290E00E9493
:100F0000ED083A94F6CFF7018681978102C08FEF02
:100F10009FEF2C96E2E10C9499090F931F93CF93C6
:100F2000DF93869F8001879F100D969F100D1124DF
:100F3000C8010E94A907EC01009729F0A80160E010
:100F400070E00E94DB08CE01DF91CF911F910F91DD
:100F50000895CF93DF938230910510F482E090E002
:100F6000E0917D01F0917E0120E030E0A0E0B0E072
:100F7000309739F14081518148175907B8F0481727
:100F8000590771F482819381109729F013969C93ED
:100F90008E9312972CC090937E0180937D0127C081
:100FA0002115310531F04217530718F0A901DB0173
:100FB00001C0EF019A01BD01DF010280F381E02D44
:100FC000D7CF21153105F9F0281B390B2430310515
:100FD00080F48A819B816115710521F0FB01938367
:100FE000828304C090937E0180937D01FE0132963E
:100FF00044C0FE01E20FF31F819391932250310907
:10100000398328833AC020917B0130917C01232BC6
:1010100041F4209102013091030130937C0120932F
:101020007B0120910001309101012115310541F42E
:101030002DB73EB74091040150910501241B350B9B
:10104000E0917B01F0917C01E217F307A0F42E1BE5
:101050003F0B2817390778F0AC014E5F5F4F24171C
:10106000350748F04E0F5F1F50937C0140937B0182
:101070008193919302C0E0E0F0E0CF01DF91CF9146
:101080000895CF93DF93009709F487C0FC0132974E
:1010900013821282C0917D01D0917E01209781F44C
:1010A00020813181280F391F80917B0190917C0133
:1010B0008217930779F5F0937C01E0937B016DC073
:1010C000DE0120E030E0AE17BF0750F412964D91DC
:1010D0005C9113979D014115510509F1DA01F3CF98
:1010E000B383A28340815181840F951F8A179B0788
:1010F00071F48D919C911197840F951F02969183A5
:10110000808312968D919C911397938382832115EE
:10111000310529F4F0937E01E0937D013EC0D901B1
:101120001396FC93EE9312974D915D91A40FB51F0A
:10113000EA17FB0779F480819181840F951F02964D
:10114000D90111969C938E938281938113969C93DF
:101150008E931297E0E0F0E08A819B81009719F06E
:10116000FE01EC01F9CFCE01029628813981820F70
:10117000931F20917B0130917C012817390769F476
:10118000309729F410927E0110927D0102C01382E3
:101190001282D0937C01C0937B01DF91CF9108959F
:1011A000FC010590615070400110D8F78095909532
:1011B0008E0F9F1F0895DC0101C06D934150504078
:1011C000E0F70895FC016150704001900110D8F7DC
:1011D000809590958E0F9F1F08950F931F93CF9327
:1011E000DF93182F092FEB018B8181FD03C08FEF57
:1011F0009FEF20C082FF10C04E815F812C813D8116
:10120000421753077CF4E881F9819F012F5F3F4F1C
:1012100039832883108306C0E885F985812F0995D5
:10122000892B29F72E813F812F5F3F4F3F832E83EC
:10123000812F902FDF91CF911F910F910895FA0187
:10124000AA27283051F1203181F1E8946F936E7F05
:101250006E5F7F4F8F4F9F4FAF4FB1E03ED0B4E0F6
:101260003CD0670F781F891F9A1FA11D680F791F37
:101270008A1F911DA11D6A0F711D811D911DA11D48
:1012800020D009F468943F912AE0269F1124301958
:10129000305D3193DEF6CF010895462F4770405DF3
:1012A0004193B3E00FD0C9F7F6CF462F4F70405DA2
:1012B0004A3318F0495D31FD4052419302D0A9F7FD
:1012C000EACFB4E0A6959795879577956795BA95F7
:1012D000C9F700976105710508959B01AC010A2EBD
:1012E00006945795479537952795BA95C9F7620F94
:1012F000731F841F951FA01D08952F923F924F9238
:101300005F926F927F928F929F92AF92BF92CF9295
:10131000DF92EF92FF920F931F93CF93DF93CDB79E
:10132000DEB7CA1BDB0B0FB6F894DEBF0FBECDBF16
:1013300009942A88398848885F846E847D848C84E7
:101340009B84AA84B984C884DF80EE80FD800C81F0
:101350001B81AA81B981CE0FD11D0FB6F894DEBFD3
:0C1360000FBECDBFED010895F894FFCF43
:10136C0000007F012000537465705F4A756D703DFD
:10137C002025640A00496E697469616C697A656438
:10138C000053746570206E756D6265722025642043
:10139C00446972656374696F6E2025642053696EAD
:1013AC005068617365412025642053696E506861F3
:1013BC007365422025642053686966742052656702
:0C13CC00204461746120307825780A000C
:00000001FF
