:100000000C94B8020C94EB020C94D5020C94D5021B
:100010000C94D5020C94D5020C94D5020C94D50204
:100020000C94D5020C94B3030C94D5020C94D50215
:100030000C94D5020C9458030C94D5020C94D50260
:100040000C9408040C94D5020C94D5020C94D5029F
:100050000C94D5020C941C040C94D5020C94D5027B
:100060000C94D5020C94D50201010101010101019A
:100070000101010101010101010101010101010170
:100080000101010101010101020202020202020258
:100090000202020202020202020202020202020240
:1000A0000202020202020202010101010101010138
:1000B0000101010101010101010101010101010130
:1000C0000101010101010101020202020202020218
:1000D0000202020202020202020202020202020200
:1000E00002020202020202020101010101010101F8
:1000F00001010101010101010101010101010101F0
:1001000001010101010101010102020202020202D8
:1001100002020202020202020202020202020202BF
:1001200002020202020202020101010101010101B7
:1001300001010101010101010101010101010101AF
:100140000101010101010101010202020202020298
:10015000020202020202020202020202020202027F
:10016000020202020202020202020202020202026F
:10017000020202020202020202020202020202025F
:100180000202020202020202010101010101010157
:10019000010101010101010101010101010101014F
:1001A0000101010101010101020202020202020237
:1001B000020202020202020202020202020202021F
:1001C0000202020202020202010101010101010117
:1001D000010101010101010101010101010101010F
:1001E00001010101010101010202020202020202F7
:1001F00002020202020202020202020202020202DF
:1002000002020202020202020201010101010101D5
:1002100001010101010101010101010101010101CE
:1002200001010101010101010102020202020202B7
:10023000020202020202020202020202020202029E
:100240000202020202020202020101010101010195
:10025000010101010101010101010101010101018E
:100260000101010101010101011008040000000267
:100270009C9C9C9C9C9C9C9C9C9C9C9C9C9C9C9CBE
:100280009C9C9C9C9C9C9C9C9C9C9C9C9C9C9C9CAE
:100290009C5C5C5C5C5C5C5C5C5C5C5C5C5C5C5C5E
:1002A0005C5C5C5C5C5C5C5C5C5C5C5C5C5C5C5C8E
:1002B0005C6C6C6C6C6C6C6C6C6C6C6C6C6C6C6C8E
:1002C0006C6C6C6C6C6C6C6C6C6C6C6C6C6C6C6C6E
:1002D0006CACACACACACACACACACACACACACACAC9E
:1002E000ACACACACACACACACACACACACACACACAC4E
:1002F000ACACACACACACACACACACACACACACACAC3E
:10030000ACACACACACACACACACACACACACACACAC2D
:10031000AC6C6C6C6C6C6C6C6C6C6C6C6C6C6C6CDD
:100320006C6C6C6C6C6C6C6C6C6C6C6C6C6C6C6C0D
:100330006C5C5C5C5C5C5C5C5C5C5C5C5C5C5C5CED
:100340005C5C5C5C5C5C5C5C5C5C5C5C5C5C5C5CED
:100350005C9C9C9C9C9C9C9C9C9C9C9C9C9C9C9C1D
:100360009C9C9C9C9C9C9C9C9C9C9C9C9C9C9C9CCD
:1003700000003300510067007C008F00A300B6002E
:10038000C800DB00EE000001120130014E016D01DA
:100390008F018F018F018F018F018F018F018F01DD
:1003A0008F018F018F018F018F018F018F018F01CD
:1003B0008F018F018F018F018F018F018F018F01BD
:1003C0008F018F018F018F018F018F018F018F01AD
:1003D0008F016D014E01300112010001EE00DB00C2
:1003E000C800B600A3008F007C00670051003300F6
:1003F00000003300510067007C008F00A300B600AE
:10040000C800DB00EE000001120130014E016D0159
:100410008F018F018F018F018F018F018F018F015C
:100420008F018F018F018F018F018F018F018F014C
:100430008F018F018F018F018F018F018F018F013C
:100440008F018F018F018F018F018F018F018F012C
:100450008F016D014E01300112010001EE00DB0041
:10046000C800B600A3008F007C0067005100330075
:100470008F018F018F018F018F018F018F018F01FC
:100480008F018F018F018F018F018F018F018F01EC
:100490008F016D014E01300112010001EE00DB0001
:1004A000C800B600A3008F007C0067005100330035
:1004B00000003300510067007C008F00A300B600ED
:1004C000C800DB00EE000001120130014E016D0199
:1004D0008F018F018F018F018F018F018F018F019C
:1004E0008F018F018F018F018F018F018F018F018C
:1004F0008F018F018F018F018F018F018F018F017C
:100500008F018F018F018F018F018F018F018F016B
:100510008F016D014E01300112010001EE00DB0080
:10052000C800B600A3008F007C00670051003300B4
:1005300000003300510067007C008F00A300B6006C
:10054000C800DB00EE000001120130014E016D0118
:100550008F018F018F018F018F018F018F018F011B
:100560008F018F018F018F018F018F018F018F010B
:1005700011241FBECFEFD8E0DEBFCDBF11E0A0E059
:10058000B1E0E4E6F4E102C005900D92A03AB107B3
:10059000D9F711E0A0EAB1E001C01D92A93BB10773
:1005A000E1F70E9472040C94300A0C9400008AB1A6
:1005B0008F788AB98AB1837F8AB95A9A5798259ACF
:1005C0000895E9E6F0E080818260808380818E7FFB
:1005D0008083E89A08951F920F920FB60F9211240C
:1005E0008F939F93EF93FF934F9B3DC085B190E214
:1005F000892785B99091A2018091A101890F8093EB
:10060000A2018091A20187FD1092A201E091A201B6
:10061000F0E0EE0FFF1FE059FC4F8591949190930D
:10062000AD018093AC01E091A201F0E0EE0FFF1F5D
:10063000E059FB4F859194919093AB018093AA016F
:100640004B9B06C0E091A201F0E0E051FD4F05C0D8
:10065000E091A201F0E0E059FD4FE491E093AE019A
:1006600081E08093A901FF91EF919F918F910F906D
:100670000FBE0F901F901895E9B1E077F0E024E0ED
:10068000F595E7952A95E1F7E859FD4FE491E09358
:10069000A1018091A1011F928F9387E091E09F9328
:1006A0008F930E94F6050F900F900F900F90089572
:1006B0001F920F920FB60F9211242F933F934F93D7
:1006C0005F936F937F938F939F93AF93BF93EF93BA
:1006D000FF938091AA019091AB0190938900809340
:1006E00088008091AC019091AD0190938B00809334
:1006F0008A008091AE010E941105FF91EF91BF9198
:10070000AF919F918F917F916F915F914F913F91A9
:100710002F910F900FBE0F901F901895E1E8F0E019
:10072000808188618083A0E8B0E08C918E7F8C937B
:100730008C91826B8C93AFE6B0E08C9181608C934E
:1007400080E991E0909387008093860087E690E0AF
:100750009093AB018093AA0180818160808384B1F2
:10076000866084B908951F920F920FB60F921124DC
:100770002F933F934F935F936F937F938F939F93A9
:10078000AF93BF93EF93FF938091A0018F5F80930E
:10079000A0018091A0018B3010F01092A0018091F7
:1007A000A001863019F482E00E9411058091A00119
:1007B000873010F08091A0018091A001893010F065
:1007C0008091A00185EF8093B200FF91EF91BF91DE
:1007D000AF919F918F917F916F915F914F913F91D9
:1007E0002F910F900FBE0F901F90189585EF80935B
:1007F000B2001092A0011092B000E0E7F0E080811A
:1008000081608083E1EBF0E08081826080830895E5
:100810001F920F920FB60F9211240F900FBE0F90E0
:100820001F90189514BCEEE6F0E080818160808313
:1008300085B5856085BD08951F920F920FB60F9202
:1008400011242F938F939F93809106018823A9F001
:100850001092060180917800909179009093A40104
:100860008093A30180917C00826080937C0081E072
:100870008093A8018EEF86BD13C021E0209306016E
:1008800080917800909179009093A6018093A501C2
:1008900080917C008D7F80937C0016BC2093A70103
:1008A0009F918F912F910F900FBE0F901F901895D1
:1008B000EAE7F0E08081886880830895EAE7F0E065
:1008C00080818083089580E480937C00EEE7F0E0EF
:1008D00080818360808384E080937B0082E28093C8
:1008E0007A00089580E895E20E9448050E94FD0480
:1008F00081E00E9408050E94F7040E948E030E9476
:10090000D7020E94E1020E943C030E9463040E94FD
:1009100058040E94120486E191E00E940A0678942D
:1009200002E211E03DE6E32E31E0F32EC6E8D1E02D
:100930008091A901882359F18FB7F8941092A901E9
:100940008FBF99B18091A2012091AE011F922F9388
:100950002091AD012F932091AC012F932091AB01F9
:100960002F932091AA012F9393FB992790F91F921F
:100970009F931F928F931F930F930E94F6058DB73D
:100980009EB70C960FB6F8949EBF0FBE8DBF809198
:10099000A801882399F08FB7F8941092A8018FBF0F
:1009A0008091A3019091A4019F938F93FF92EF9266
:1009B0000E94F6050F900F900F900F908091A70165
:1009C000882309F4B5CF8FB7F8941092A7018FBF91
:1009D0008091A5019091A6019F938F93DF93CF9370
:1009E0000E94F6050F900F900F900F90A1CF2C98BA
:1009F000449A08952C9A4498089587B18C6387B9D6
:100A000088B18C7388B9249A0895439A43980895BD
:100A10002C984498429A429881110E9405050C94A2
:100A2000F70498E080FF02C0459A01C0459886957A
:100A3000429A42989150B1F70C94050520E180FF4D
:100A400002C0459A01C0459896958795429A42986A
:100A50002150A9F70C9405059091C00095FFFCCF9B
:100A60008093C60008958091C00087FFFCCF8091DD
:100A7000C60090E0089526E02093C2001092C000C6
:100A80009093C5008093C40088E18093C1000895CD
:100A90009C0140E050E060E472E48FE090E00E944E
:100AA0006A05C90101970E943B0560E070E08CE295
:100AB00095E00E94AB059093B2018093B10163E38E
:100AC00075E080E090E00E94AB059093B0018093C8
:100AD000AF010895052E97FB1EF400940E94810536
:100AE00057FD07D00E94890507FC03D04EF40C94F3
:100AF000810550954095309521953F4F4F4F5F4F61
:100B0000089590958095709561957F4F8F4F9F4F79
:100B10000895A1E21A2EAA1BBB1BFD010DC0AA1F3E
:100B2000BB1FEE1FFF1FA217B307E407F50720F056
:100B3000A21BB30BE40BF50B661F771F881F991FD1
:100B40001A9469F760957095809590959B01AC011A
:100B5000BD01CF0108950F931F93CF93DF93EC0155
:100B60008B01009731F46115710519F480E090E074
:100B700038C06EE070E081E090E00E940908FC015E
:100B80000097A1F380E883830115110571F01387A5
:100B9000028781E883838091AF019091B001892B16
:100BA00021F4F093B001E093AF012097C9F0D18711
:100BB000C0878381826083838091B1019091B2016B
:100BC000892B71F4F093B201E093B1018091B301EC
:100BD0009091B401892B21F4F093B401E093B30117
:100BE000CF01DF91CF911F910F910895A0E0B0E068
:100BF000ECEFF5E00C94090AFE01359661917191D4
:100C0000AF018091B1019091B2010E943706E2E0FC
:100C10000C94250A0F931F93CF93DF93E091B101BA
:100C2000F091B201238121FF1BC0EC0100E010E034
:100C300089916091B1017091B201DB011896ED913B
:100C4000FC911997882331F00995892B89F30FEFCF
:100C50001FEFEECF8AE00995892B11F4C80102C07D
:100C60008FEF9FEFDF91CF911F910F910895ACE02F
:100C7000B0E0EDE3F6E00C94F9097C016B018A0128
:100C8000FC0117821682838181FFBDC1CE010196CE
:100C90004C01F7019381F60193FD859193FF8191BA
:100CA0006F01882309F4ABC1853239F493FD859136
:100CB00093FF81916F01853229F4B70190E00E9482
:100CC0006909E7CF512C312C20E02032A0F48B327F
:100CD00069F030F4803259F0833269F420612CC01D
:100CE0008D3239F0803339F4216026C022602460CF
:100CF00023C0286021C027FD27C030ED380F3A30CF
:100D000078F426FF06C0FAE05F9E300D1124532EC2
:100D100013C08AE0389E300D1124332E20620CC09F
:100D20008E3221F426FD6BC1206406C08C3611F48E
:100D3000206802C0883641F4F60193FD859193FF47
:100D400081916F018111C1CF982F9F7D9554933070
:100D500028F40C5F1F4FFFE3F9830DC0833631F099
:100D6000833771F0833509F05BC022C0F8018081C0
:100D700089830E5F1F4F44244394512C540115C0A6
:100D80003801F2E06F0E711CF801A080B18026FFDF
:100D900003C0652D70E002C06FEF7FEFC5012C87A7
:100DA0000E945E092C0183012C852F77222E17C00B
:100DB0003801F2E06F0E711CF801A080B18026FFAF
:100DC00003C0652D70E002C06FEF7FEFC5012C8777
:100DD0000E944C092C012C852068222E830123FCC3
:100DE0001BC0832D90E048165906B0F4B70180E28D
:100DF00090E00E9469093A94F4CFF50127FC8591AF
:100E000027FE81915F01B70190E00E9469093110CE
:100E10003A94F1E04F1A51084114510471F7E5C0BA
:100E2000843611F0893639F5F80127FF07C0608153
:100E30007181828193810C5F1F4F08C06081718135
:100E4000882777FD8095982F0E5F1F4F2F76B22E43
:100E500097FF09C090958095709561957F4F8F4F52
:100E60009F4F2068B22E2AE030E0A4010E949B0927
:100E7000A82EA81844C0853729F42F7EB22E2AE068
:100E800030E025C0F22FF97FBF2E8F36C1F018F465
:100E9000883579F0B4C0803719F0883721F0AFC0B9
:100EA0002F2F2061B22EB4FE0DC08B2D8460B82E82
:100EB00009C024FF0AC09F2F9660B92E06C028E003
:100EC00030E005C020E130E002C020E132E0F8016E
:100ED000B7FE07C060817181828193810C5F1F4FD3
:100EE00006C06081718180E090E00E5F1F4FA40119
:100EF0000E949B09A82EA818FB2DFF77BF2EB6FED7
:100F00000BC02B2D2E7FA51450F4B4FE0AC0B2FCEA
:100F100008C02B2D2E7E05C07A2C2B2D03C07A2CD9
:100F200001C0752C24FF0DC0FE01EA0DF11D80816A
:100F3000803311F4297E09C022FF06C07394739494
:100F400004C0822F867809F0739423FD13C020FF1C
:100F500006C05A2C731418F4530C5718732C7314BE
:100F600068F4B70180E290E02C870E9469097394CD
:100F70002C85F5CF731410F4371801C0312C24FFE1
:100F800012C0B70180E390E02C870E9469092C858C
:100F900022FF17C021FF03C088E590E002C088E768
:100FA00090E0B7010CC0822F867859F021FD02C075
:100FB00080E201C08BE227FD8DE2B70190E00E9444
:100FC0006909A51438F4B70180E390E00E9469092B
:100FD0005A94F7CFAA94F401EA0DF11D8081B7016C
:100FE00090E00E946909A110F5CF332009F451CE99
:100FF000B70180E290E00E9469093A94F6CFF701C8
:101000008681978102C08FEF9FEF2C96E2E10C94CE
:10101000150A0F931F93CF93DF93869F8001879FBD
:10102000100D969F100D1124C8010E942508EC0197
:10103000009729F0A80160E070E00E945709CE01F6
:10104000DF91CF911F910F910895CF93DF9382305D
:10105000910510F482E090E0E091B701F091B801C1
:1010600020E030E0A0E0B0E0309739F140815181DC
:1010700048175907B8F04817590771F482819381CE
:10108000109729F013969C938E9312972CC09093EF
:10109000B8018093B70127C02115310531F04217FF
:1010A000530718F0A901DB0101C0EF019A01BD014E
:1010B000DF010280F381E02DD7CF21153105F9F052
:1010C000281B390B2430310580F48A819B816115FE
:1010D000710521F0FB019383828304C09093B801D2
:1010E0008093B701FE01329644C0FE01E20FF31F68
:1010F0008193919322503109398328833AC02091FA
:10110000B5013091B601232B41F4209102013091B9
:1011100003013093B6012093B50120910001309175
:1011200001012115310541F42DB73EB7409104016D
:1011300050910501241B350BE091B501F091B601EA
:10114000E217F307A0F42E1B3F0B2817390778F09E
:10115000AC014E5F5F4F2417350748F04E0F5F1FFD
:101160005093B6014093B5018193919302C0E0E0A2
:10117000F0E0CF01DF91CF910895CF93DF930097F7
:1011800009F487C0FC01329713821282C091B70123
:10119000D091B801209781F420813181280F391F27
:1011A0008091B5019091B6018217930779F5F0937C
:1011B000B601E093B5016DC0DE0120E030E0AE176E
:1011C000BF0750F412964D915C9113979D01411504
:1011D000510509F1DA01F3CFB383A2834081518134
:1011E000840F951F8A179B0771F48D919C9111971D
:1011F000840F951F02969183808312968D919C9106
:101200001397938382832115310529F4F093B80154
:10121000E093B7013EC0D9011396FC93EE93129769
:101220004D915D91A40FB51FEA17FB0779F48081FA
:101230009181840F951F0296D90111969C938E93EC
:101240008281938113969C938E931297E0E0F0E055
:101250008A819B81009719F0FE01EC01F9CFCE0144
:10126000029628813981820F931F2091B501309118
:10127000B6012817390769F4309729F41092B8019C
:101280001092B70102C013821282D093B601C093AC
:10129000B501DF91CF910895FC0105906150704038
:1012A0000110D8F7809590958E0F9F1F0895DC014F
:1012B00001C06D9341505040E0F70895FC0161502A
:1012C000704001900110D8F7809590958E0F9F1F68
:1012D00008950F931F93CF93DF93182F092FEB01DE
:1012E0008B8181FD03C08FEF9FEF20C082FF10C074
:1012F0004E815F812C813D81421753077CF4E88148
:10130000F9819F012F5F3F4F39832883108306C0E7
:10131000E885F985812F0995892B29F72E813F8151
:101320002F5F3F4F3F832E83812F902FDF91CF91EF
:101330001F910F910895FA01AA27283051F1203109
:1013400081F1E8946F936E7F6E5F7F4F8F4F9F4F59
:10135000AF4FB1E03ED0B4E03CD0670F781F891F9B
:101360009A1FA11D680F791F8A1F911DA11D6A0F69
:10137000711D811D911DA11D20D009F468943F911C
:101380002AE0269F11243019305D3193DEF6CF011B
:101390000895462F4770405D4193B3E00FD0C9F7E1
:1013A000F6CF462F4F70405D4A3318F0495D31FD4E
:1013B0004052419302D0A9F7EACFB4E0A6959795A1
:1013C000879577956795BA95C9F700976105710577
:1013D00008959B01AC010A2E0694579547953795C1
:1013E0002795BA95C9F7620F731F841F951FA01D1B
:1013F00008952F923F924F925F926F927F928F92B9
:101400009F92AF92BF92CF92DF92EF92FF920F9393
:101410001F93CF93DF93CDB7DEB7CA1BDB0B0FB69D
:10142000F894DEBF0FBECDBF09942A88398848885A
:101430005F846E847D848C849B84AA84B984C884F0
:10144000DF80EE80FD800C811B81AA81B981CE0FE7
:10145000D11D0FB6F894DEBF0FBECDBFED010895CC
:04146000F894FFCF2E
:101464000000B901200001537465705F4A756D7006
:101474003D2025640A00496E697469616C697A6566
:10148400640053746570206E756D62657220256406
:1014940020446972656374696F6E20256420536902
:1014A4006E5068617365412025642053696E5068ED
:1014B400617365422025642053686966742052650F
:1014C40067204461746120307825780A0053656E82
:1014D40073653031202F20414443302076616C7590
:1014E400652025640A0053656E73653032202F2011
:1014F400414443312076616C75652025640A0000FF
:00000001FF
