:100000000C9434010C9446010C9446010C94460166
:100010000C9446010C9446010C9446010C94460144
:100020000C9446010C9446010C9446010C94460134
:100030000C9446010C9446010C9446010C94460124
:100040000C9446010C9446010C9446010C94460114
:100050000C9446010C9446010C9446010C94460104
:100060000C9446010C9446010000330051006700D7
:100070007C008F00A300B600C800DB00EE0000018A
:10008000120130014E016D018F018F018F018F012F
:100090008F018F018F018F018F018F018F018F01E0
:1000A0008F018F018F018F018F018F018F018F01D0
:1000B0008F018F018F018F018F018F018F018F01C0
:1000C0008F018F018F018F018F016D014E01300172
:1000D00012010001EE00DB00C800B600A3008F0093
:1000E0007C006700510033000000330051006700BE
:1000F0007C008F00A300B600C800DB00EE0000010A
:10010000120130014E016D018F018F018F018F01AE
:100110008F018F018F018F018F018F018F018F015F
:100120008F018F018F018F018F018F018F018F014F
:100130008F018F018F018F018F018F018F018F013F
:100140008F018F018F018F018F016D014E013001F1
:1001500012010001EE00DB00C800B600A3008F0012
:100160007C006700510033008F018F018F018F01E8
:100170008F018F018F018F018F018F018F018F01FF
:100180008F018F018F018F018F016D014E013001B1
:1001900012010001EE00DB00C800B600A3008F00D2
:1001A0007C006700510033000000330051006700FD
:1001B0007C008F00A300B600C800DB00EE00000149
:1001C000120130014E016D018F018F018F018F01EE
:1001D0008F018F018F018F018F018F018F018F019F
:1001E0008F018F018F018F018F018F018F018F018F
:1001F0008F018F018F018F018F018F018F018F017F
:100200008F018F018F018F018F016D014E01300130
:1002100012010001EE00DB00C800B600A3008F0051
:100220007C0067005100330000003300510067007C
:100230007C008F00A300B600C800DB00EE000001C8
:10024000120130014E016D018F018F018F018F016D
:100250008F018F018F018F018F018F018F018F011E
:100260008F018F018F018F0111241FBECFEFD8E0C6
:10027000DEBFCDBF11E0A0E0B1E001C01D92A23011
:10028000B107E1F70E9491010C94BC010C940000AD
:1002900084B1896284B915B80895289A2898089578
:1002A00098E080FF02C02B9A01C02B9886952D9A6A
:1002B0002D989150B1F70C944D0120E180FF02C0C0
:1002C0002B9A01C02B98969587952D9A2D982150A1
:1002D000A9F70C944D01E1E8F0E08081886180830A
:1002E000A0E8B0E08C918E7F8C938C91826B8C9384
:1002F00080E991E090938700809386008FE891E0F9
:10030000909389008093880087E690E090938B001B
:1003100080938A0080818160808384B1866084B903
:1003200008950E946B010E94480181E090E40E94C0
:100330005D0140E047FD1EC0842F90E0880F991FAB
:10034000FC01E859FF4F2591349130938B002093A5
:100350008A0088599E4FFC01859194919093890061
:10036000809388008FE39CE90197F1F700C00000BB
:0C0370004F5FE0CF40E0E0CFF894FFCFFB
:00000001FF
