:100000000C9438020C946B020C9455020C9455021B
:100010000C9455020C9455020C9455020C94550204
:100020000C9455020C9433030C9455020C94550215
:100030000C9455020C94D8020C9455020C94550261
:100040000C94B3030C9455020C9455020C94550275
:100050000C9455020C94C7030C9455020C94550251
:100060000C9455020C94550201010101010101019A
:100070000101010101010101010101010101010170
:100080000101010101010101010000000000000067
:100090000000000000000000000000000000000060
:1000A0000000000000000000010101010101010148
:1000B0000101010101010101010101010101010130
:1000C0000101010101010101010000000000000027
:1000D0000000000000000000000000000000000020
:1000E0000000000000000000000000000000000010
:1000F0000000000000000000000000000000000000
:1001000000000000000000000001010101010101E8
:1001100001010101010101010101010101010101CF
:1001200001010101010101010100000000000000C6
:1001300000000000000000000000000000000000BF
:1001400000000000000000000001010101010101A8
:10015000010101010101010101010101010101018F
:100160000101010101010101011008040000000268
:100170009C9C9C9C9C9C9C9C9C9C9C9C9C9C9C9CBF
:100180009C9C9C9C9C9C9C9C9C9C9C9C9C9C9C9CAF
:100190009C5C5C5C5C5C5C5C5C5C5C5C5C5C5C5C5F
:1001A0005C5C5C5C5C5C5C5C5C5C5C5C5C5C5C5C8F
:1001B0005C6C6C6C6C6C6C6C6C6C6C6C6C6C6C6C8F
:1001C0006C6C6C6C6C6C6C6C6C6C6C6C6C6C6C6C6F
:1001D0006CACACACACACACACACACACACACACACAC9F
:1001E000ACACACACACACACACACACACACACACACAC4F
:1001F000ACACACACACACACACACACACACACACACAC3F
:10020000ACACACACACACACACACACACACACACACAC2E
:10021000AC6C6C6C6C6C6C6C6C6C6C6C6C6C6C6CDE
:100220006C6C6C6C6C6C6C6C6C6C6C6C6C6C6C6C0E
:100230006C5C5C5C5C5C5C5C5C5C5C5C5C5C5C5CEE
:100240005C5C5C5C5C5C5C5C5C5C5C5C5C5C5C5CEE
:100250005C9C9C9C9C9C9C9C9C9C9C9C9C9C9C9C1E
:100260009C9C9C9C9C9C9C9C9C9C9C9C9C9C9C9CCE
:1002700000003300510067007C008F00A300B6002F
:10028000C800DB00EE000001120130014E016D01DB
:100290008F018F018F018F018F018F018F018F01DE
:1002A0008F018F018F018F018F018F018F018F01CE
:1002B0008F018F018F018F018F018F018F018F01BE
:1002C0008F018F018F018F018F018F018F018F01AE
:1002D0008F016D014E01300112010001EE00DB00C3
:1002E000C800B600A3008F007C00670051003300F7
:1002F00000003300510067007C008F00A300B600AF
:10030000C800DB00EE000001120130014E016D015A
:100310008F018F018F018F018F018F018F018F015D
:100320008F018F018F018F018F018F018F018F014D
:100330008F018F018F018F018F018F018F018F013D
:100340008F018F018F018F018F018F018F018F012D
:100350008F016D014E01300112010001EE00DB0042
:10036000C800B600A3008F007C0067005100330076
:100370008F018F018F018F018F018F018F018F01FD
:100380008F018F018F018F018F018F018F018F01ED
:100390008F016D014E01300112010001EE00DB0002
:1003A000C800B600A3008F007C0067005100330036
:1003B00000003300510067007C008F00A300B600EE
:1003C000C800DB00EE000001120130014E016D019A
:1003D0008F018F018F018F018F018F018F018F019D
:1003E0008F018F018F018F018F018F018F018F018D
:1003F0008F018F018F018F018F018F018F018F017D
:100400008F018F018F018F018F018F018F018F016C
:100410008F016D014E01300112010001EE00DB0081
:10042000C800B600A3008F007C00670051003300B5
:1004300000003300510067007C008F00A300B6006D
:10044000C800DB00EE000001120130014E016D0119
:100450008F018F018F018F018F018F018F018F011C
:100460008F018F018F018F018F018F018F018F010C
:1004700011241FBECFEFD8E0DEBFCDBF11E0A0E05A
:10048000B1E0E2EEF4E102C005900D92A83EB107A2
:10049000D9F712E0A8EEB1E001C01D92A130B1077A
:1004A000E1F70E9431050C946F0A0C9400008AB1A8
:1004B0008F788AB98AB1837F8AB95A9A5798259AD0
:1004C0000895E9E6F0E080818260808380818E7FFC
:1004D0008083E89A08951F920F920FB60F9211240D
:1004E0008F939F93EF93FF934F9B3DC085B190E215
:1004F000892785B99091EA018091E901890F80935C
:10050000EA018091EA0187FD1092EA01E091EA0197
:10051000F0E0EE0FFF1FE059FD4F8591949190930D
:10052000F5018093F401E091EA01F0E0EE0FFF1F86
:10053000E059FC4F859194919093F3018093F201DF
:100540004B9B06C0E091EA01F0E0E051FE4F05C090
:10055000E091EA01F0E0E059FE4FE491E093F6010A
:1005600081E08093F101FF91EF919F918F910F9026
:100570000FBE0F901F901895E9B1E077F0E024E0EE
:10058000F595E7952A95E1F7E859FE4FE491E09358
:10059000E9018091E9011F928F9387E091E09F9399
:1005A0008F930E9435060F900F900F900F90089533
:1005B0001F920F920FB60F9211242F933F934F93D8
:1005C0005F936F937F938F939F93AF93BF93EF93BB
:1005D000FF938091F2019091F301909389008093B1
:1005E00088008091F4019091F50190938B008093A5
:1005F0008A008091F6010E945005FF91EF91BF9112
:10060000AF919F918F917F916F915F914F913F91AA
:100610002F910F900FBE0F901F901895E1E8F0E01A
:10062000808188618083A0E8B0E08C918E7F8C937C
:100630008C91826B8C93AFE6B0E08C9181608C934F
:1006400080E991E0909387008093860087E690E0B0
:100650009093F3018093F20180818160808384B163
:10066000866084B908951F920F920FB60F921124DD
:100670002F933F934F935F936F937F938F939F93AA
:10068000AF93BF93EF93FF938091E8018F5F8093C7
:10069000E8018091E8018B3010F01092E801809120
:1006A000E801863019F482E00E9450058091E8014B
:1006B000873020F18091E801893000F59091F601B2
:1006C000E091EA01F0E0E851FF4FE491E11105C04B
:1006D0009E7F9E6080EC982702C09E739E60E09192
:1006E000EA01F0E0E859FF4FE491E11103C080E333
:1006F000892702C0892F8F7C0E9450058091E801D4
:10070000893058F08091E8018B3038F48091EA010B
:100710008091EA018EE00E94500585EF8093B2003F
:10072000FF91EF91BF91AF919F918F917F916F91C9
:100730005F914F913F912F910F900FBE0F901F909F
:10074000189585EF8093B2001092E8011092B000E6
:10075000E0E7F0E0808181608083E1EBF0E0808180
:100760008260808308951F920F920FB60F9211241A
:100770000F900FBE0F901F90189514BCEEE6F0E09E
:1007800080818160808385B5856085BD08951F92D5
:100790000F920FB60F9211242F938F939F938091F6
:1007A00006018823A9F010920601809178009091AB
:1007B00079009093EC018093EB0180917C00826042
:1007C00080937C0081E08093F0018EEF86BD13C0A2
:1007D00021E0209306018091780090917900909318
:1007E000EE018093ED0180917C008D7F80937C00F1
:1007F00016BC2093EF019F918F912F910F900FBE08
:100800000F901F901895EAE7F0E080818868808358
:100810000895EAE7F0E080818083089580E4809382
:100820007C00EEE7F0E080818360808384E0809349
:100830007B0082E280937A0008953F924F925F920C
:100840006F927F928F929F92AF92BF92CF92DF92E0
:10085000EF92FF920F931F93CF93DF9380E895E27F
:100860000E9487050E943C0581E00E9447050E9486
:1008700036050E940E030E9457020E9461020E94E8
:10088000BC020E940E040E9403040E94BD0386E184
:1008900091E00E94490681E08093E901412C02E247
:1008A00011E04FE4E42E41E0F42E52E7C52E51E072
:1008B000D52E60EC562E70E3772EE0E9AE2EE1E007
:1008C000BE2EFEE06F2EACEB8A2EA1E09A2E47FCE6
:1008D000B6C0C42DD0E0CE01880F991FFC01E059AD
:1008E000FD4F259134913093F5012093F401805907
:1008F0009C4FFC01259134913093F3012093F20138
:1009000030938900209388008091F4019091F50143
:1009100090938B0080938A0020918A0030918B0005
:1009200080918800909189003F932F939F938F939C
:100930001F924F921F930F930E943506FE01E051C4
:10094000FE4F3490832D0E9450051F923F921F92BC
:100950004F92FF92EF920E9435062FEF83EC99E0C1
:10096000215080409040E1F700C0000082E00E94EA
:1009700050051F9282E08F931F924F92DF92CF9289
:100980000E9435062FEF83EC99E021508040904083
:10099000E1F700C00000FE01E851FF4FE4918DB780
:1009A0009EB744960FB6F8949EBF0FBE8DBF832DA1
:1009B000E11104C08E7F8E60852502C08E738E602B
:1009C000FE01E859FF4FE491E11103C0382E3724AE
:1009D00002C08F7C382E832D0E9450051F923F92BB
:1009E000DF93CF93BF92AF920E9435068FEF93ECC7
:1009F00029E0815090402040E1F700C000001F92A4
:100A00006F92DF93CF939F928F920E9435068EE074
:100A10000E9450052FEF83EC99E0215080409040D8
:100A2000E1F700C000008091E901480E8DB79EB744
:100A30000C960FB6F8949EBF0FBE8DBF48CFDF91C6
:100A4000CF911F910F91FF90EF90DF90CF90BF90CB
:100A5000AF909F908F907F906F905F904F903F905E
:100A600008950E941D0480E090E008952C98449A17
:100A700008952C9A4498089587B18C6387B988B1FA
:100A80008C7388B9249A0895439A439808952C98B2
:100A90004498429A429881110E9444050C9436056C
:100AA00098E080FF02C0459A01C045988695429A19
:100AB00042989150B1F70C94440520E180FF02C0A8
:100AC000459A01C0459896958795429A429821503B
:100AD000A9F70C9444059091C00095FFFCCF80933A
:100AE000C60008958091C00087FFFCCF8091C600AA
:100AF00090E0089526E02093C2001092C0009093E9
:100B0000C5008093C40088E18093C10008959C01D2
:100B100040E050E060E472E48FE090E00E94A905BC
:100B2000C90101970E947A0560E070E08BE695E0CC
:100B30000E94EA059093FA018093F90162E775E05B
:100B400080E090E00E94EA059093F8018093F7011D
:100B50000895052E97FB1EF400940E94C00557FDD2
:100B600007D00E94C80507FC03D04EF40C94C005C2
:100B700050954095309521953F4F4F4F5F4F0895C9
:100B800090958095709561957F4F8F4F9F4F0895F9
:100B9000A1E21A2EAA1BBB1BFD010DC0AA1FBB1F81
:100BA000EE1FFF1FA217B307E407F50720F0A21BF3
:100BB000B30BE40BF50B661F771F881F991F1A9460
:100BC00069F760957095809590959B01AC01BD018A
:100BD000CF0108950F931F93CF93DF93EC018B0107
:100BE000009731F46115710519F480E090E038C088
:100BF0006EE070E081E090E00E944808FC01009700
:100C0000A1F380E883830115110571F01387028732
:100C100081E883838091F7019091F801892B21F479
:100C2000F093F801E093F7012097C9F0D187C087CE
:100C30008381826083838091F9019091FA01892BED
:100C400071F4F093FA01E093F9018091FB01909126
:100C5000FC01892B21F4F093FC01E093FB01CF010F
:100C6000DF91CF911F910F910895A0E0B0E0EBE3E9
:100C7000F6E00C94480AFE01359661917191AF013E
:100C80008091F9019091FA010E947606E2E00C94BD
:100C9000640A0F931F93CF93DF93E091F901F091D2
:100CA000FA01238121FF1BC0EC0100E010E08991D3
:100CB0006091F9017091FA01DB011896ED91FC91B8
:100CC0001997882331F00995892B89F30FEF1FEFCE
:100CD000EECF8AE00995892B11F4C80102C08FEF8D
:100CE0009FEFDF91CF911F910F910895ACE0B0E09D
:100CF000ECE7F6E00C94380A7C016B018A01FC01F8
:100D000017821682838181FFBDC1CE0101964C01FD
:100D1000F7019381F60193FD859193FF81916F0116
:100D2000882309F4ABC1853239F493FD859193FF93
:100D300081916F01853229F4B70190E00E94A809E2
:100D4000E7CF512C312C20E02032A0F48B3269F017
:100D500030F4803259F0833269F420612CC08D3236
:100D600039F0803339F4216026C02260246023C02A
:100D7000286021C027FD27C030ED380F3A3078F4C5
:100D800026FF06C0FAE05F9E300D1124532E13C0DB
:100D90008AE0389E300D1124332E20620CC08E3232
:100DA00021F426FD6BC1206406C08C3611F4206846
:100DB00002C0883641F4F60193FD859193FF81913D
:100DC0006F018111C1CF982F9F7D9554933028F4E6
:100DD0000C5F1F4FFFE3F9830DC0833631F083377B
:100DE00071F0833509F05BC022C0F80180818983EE
:100DF0000E5F1F4F44244394512C540115C03801F9
:100E0000F2E06F0E711CF801A080B18026FF03C0D4
:100E1000652D70E002C06FEF7FEFC5012C870E9447
:100E20009D092C0183012C852F77222E17C03801B4
:100E3000F2E06F0E711CF801A080B18026FF03C0A4
:100E4000652D70E002C06FEF7FEFC5012C870E9417
:100E50008B092C012C852068222E830123FC1BC0CA
:100E6000832D90E048165906B0F4B70180E290E077
:100E70000E94A8093A94F4CFF50127FC859127FE3A
:100E800081915F01B70190E00E94A80931103A9466
:100E9000F1E04F1A51084114510471F7E5C084364E
:100EA00011F0893639F5F80127FF07C0608171819B
:100EB000828193810C5F1F4F08C0608171818827F8
:100EC00077FD8095982F0E5F1F4F2F76B22E97FFDC
:100ED00009C090958095709561957F4F8F4F9F4F7A
:100EE0002068B22E2AE030E0A4010E94DA09A82E80
:100EF000A81844C0853729F42F7EB22E2AE030E0AE
:100F000025C0F22FF97FBF2E8F36C1F018F4883537
:100F100079F0B4C0803719F0883721F0AFC02F2F97
:100F20002061B22EB4FE0DC08B2D8460B82E09C096
:100F300024FF0AC09F2F9660B92E06C028E030E03B
:100F400005C020E130E002C020E132E0F801B7FE48
:100F500007C060817181828193810C5F1F4F06C041
:100F60006081718180E090E00E5F1F4FA4010E94BC
:100F7000DA09A82EA818FB2DFF77BF2EB6FE0BC0EE
:100F80002B2D2E7FA51450F4B4FE0AC0B2FC08C06D
:100F90002B2D2E7E05C07A2C2B2D03C07A2C01C060
:100FA000752C24FF0DC0FE01EA0DF11D80818033F8
:100FB00011F4297E09C022FF06C07394739404C003
:100FC000822F867809F0739423FD13C020FF06C09A
:100FD0005A2C731418F4530C5718732C731468F4A8
:100FE000B70180E290E02C870E94A80973942C85B9
:100FF000F5CF731410F4371801C0312C24FF12C040
:10100000B70180E390E02C870E94A8092C8522FF7D
:1010100017C021FF03C088E590E002C088E790E098
:10102000B7010CC0822F867859F021FD02C080E202
:1010300001C08BE227FD8DE2B70190E00E94A80974
:10104000A51438F4B70180E390E00E94A8095A94EF
:10105000F7CFAA94F401EA0DF11D8081B70190E069
:101060000E94A809A110F5CF332009F451CEB70191
:1010700080E290E00E94A8093A94F6CFF7018681B9
:10108000978102C08FEF9FEF2C96E2E10C94540AF7
:101090000F931F93CF93DF93869F8001879F100D3F
:1010A000969F100D1124C8010E946408EC0100975E
:1010B00029F0A80160E070E00E949609CE01DF915E
:1010C000CF911F910F910895CF93DF9382309105B7
:1010D00010F482E090E0E091FF01F091000220E046
:1010E00030E0A0E0B0E0309739F1408151814817FD
:1010F0005907B8F04817590771F482819381109706
:1011000029F013969C938E9312972CC09093000213
:101110008093FF0127C02115310531F04217530795
:1011200018F0A901DB0101C0EF019A01BD01DF0147
:101130000280F381E02DD7CF21153105F9F0281B6E
:10114000390B2430310580F48A819B81611571054A
:1011500021F0FB019383828304C09093000280936B
:10116000FF01FE01329644C0FE01E20FF31F81939E
:10117000919322503109398328833AC02091FD018F
:101180003091FE01232B41F42091020130910301A3
:101190003093FE012093FD01209100013091010167
:1011A0002115310541F42DB73EB74091040150910E
:1011B0000501241B350BE091FD01F091FE01E217C2
:1011C000F307A0F42E1B3F0B2817390778F0AC016A
:1011D0004E5F5F4F2417350748F04E0F5F1F509347
:1011E000FE014093FD018193919302C0E0E0F0E0A5
:1011F000CF01DF91CF910895CF93DF93009709F44A
:1012000087C0FC01329713821282C091FF01D091F6
:101210000002209781F420813181280F391F8091AD
:10122000FD019091FE018217930779F5F093FE017D
:10123000E093FD016DC0DE0120E030E0AE17BF0796
:1012400050F412964D915C9113979D0141155105F3
:1012500009F1DA01F3CFB383A28340815181840F76
:10126000951F8A179B0771F48D919C911197840F9C
:10127000951F02969183808312968D919C9113976E
:10128000938382832115310529F4F0930002E093C2
:10129000FF013EC0D9011396FC93EE9312974D9136
:1012A0005D91A40FB51FEA17FB0779F48081918146
:1012B000840F951F0296D90111969C938E9382817B
:1012C000938113969C938E931297E0E0F0E08A81CD
:1012D0009B81009719F0FE01EC01F9CFCE01029637
:1012E00028813981820F931F2091FD013091FE01E9
:1012F0002817390769F4309729F4109200021092E8
:10130000FF0102C013821282D093FE01C093FD013F
:10131000DF91CF910895FC0105906150704001105C
:10132000D8F7809590958E0F9F1F0895DC0101C01E
:101330006D9341505040E0F70895FC0161507040BA
:1013400001900110D8F7809590958E0F9F1F0895FA
:101350000F931F93CF93DF93182F092FEB018B81EE
:1013600081FD03C08FEF9FEF20C082FF10C04E8130
:101370005F812C813D81421753077CF4E881F9811C
:101380009F012F5F3F4F39832883108306C0E88574
:10139000F985812F0995892B29F72E813F812F5FB0
:1013A0003F4F3F832E83812F902FDF91CF911F914D
:1013B0000F910895FA01AA27283051F1203181F1C7
:1013C000E8946F936E7F6E5F7F4F8F4F9F4FAF4F4D
:1013D000B1E03ED0B4E03CD0670F781F891F9A1F60
:1013E000A11D680F791F8A1F911DA11D6A0F711D14
:1013F000811D911DA11D20D009F468943F912AE020
:10140000269F11243019305D3193DEF6CF01089507
:10141000462F4770405D4193B3E00FD0C9F7F6CF38
:10142000462F4F70405D4A3318F0495D31FD405200
:10143000419302D0A9F7EACFB4E0A6959795879596
:1014400077956795BA95C9F7009761057105089575
:101450009B01AC010A2E0694579547953795279521
:10146000BA95C9F7620F731F841F951FA01D0895B9
:101470002F923F924F925F926F927F928F929F92A4
:10148000AF92BF92CF92DF92EF92FF920F931F9392
:10149000CF93DF93CDB7DEB7CA1BDB0B0FB6F89443
:1014A000DEBF0FBECDBF09942A88398848885F8483
:1014B0006E847D848C849B84AA84B984C884DF80F4
:1014C000EE80FD800C811B81AA81B981CE0FD11DD8
:1014D0000FB6F894DEBF0FBECDBFED010895F894AE
:0214E000FFCF3C
:1014E20000000102200001537465705F4A756D703F
:1014F2003D2025640A00496E697469616C697A65E8
:101502006400537465702025642053696E5F5068CF
:101512006173655F4120256420616E6420205369F8
:101522006E5F50686173655F41082025640A00534D
:10153200746570202564204E6F726D616C20647238
:101542006976696E67207061747465726E202578A1
:101552000A00537465702025642044656164207418
:10156200696D65207061747465726E2025780A0059
:101572005374657020256420317374207061727415
:10158200206F66204D697865642044656361792027
:101592006C6F6164696E672025780A005374657008
:1015A20020256420326E642070617274206F662080
:1015B2004D69786564204465636179206C6F61646C
:0815C200696E672025780A001C
:00000001FF
