:100000000C94B8010C94E0010C94CA010C94CA0140
:100010000C94CA010C94CA010C94CA010C94CA0134
:100020000C94CA010C94CA010C94CA010C94CA0124
:100030000C94CA010C94CA010C94CA010C94CA0114
:100040000C94CA010C94CA010C94CA010C94CA0104
:100050000C94CA010C94CA010C94CA010C94CA01F4
:100060000C94CA010C94CA0101100804000000029B
:100070009C9C9C9C9C9C9C9C9C9C9C9C9C9C9C9CC0
:100080009C9C9C9C9C9C9C9C9C9C9C9C9C9C9C9CB0
:100090009C5C5C5C5C5C5C5C5C5C5C5C5C5C5C5C60
:1000A0005C5C5C5C5C5C5C5C5C5C5C5C5C5C5C5C90
:1000B0005C6C6C6C6C6C6C6C6C6C6C6C6C6C6C6C90
:1000C0006C6C6C6C6C6C6C6C6C6C6C6C6C6C6C6C70
:1000D0006CACACACACACACACACACACACACACACACA0
:1000E000ACACACACACACACACACACACACACACACAC50
:1000F000ACACACACACACACACACACACACACACACAC40
:10010000ACACACACACACACACACACACACACACACAC2F
:10011000AC6C6C6C6C6C6C6C6C6C6C6C6C6C6C6CDF
:100120006C6C6C6C6C6C6C6C6C6C6C6C6C6C6C6C0F
:100130006C5C5C5C5C5C5C5C5C5C5C5C5C5C5C5CEF
:100140005C5C5C5C5C5C5C5C5C5C5C5C5C5C5C5CEF
:100150005C9C9C9C9C9C9C9C9C9C9C9C9C9C9C9C1F
:100160009C9C9C9C9C9C9C9C9C9C9C9C9C9C9C9CCF
:1001700000003300510067007C008F00A300B60030
:10018000C800DB00EE000001120130014E016D01DC
:100190008F018F018F018F018F018F018F018F01DF
:1001A0008F018F018F018F018F018F018F018F01CF
:1001B0008F018F018F018F018F018F018F018F01BF
:1001C0008F018F018F018F018F018F018F018F01AF
:1001D0008F016D014E01300112010001EE00DB00C4
:1001E000C800B600A3008F007C00670051003300F8
:1001F00000003300510067007C008F00A300B600B0
:10020000C800DB00EE000001120130014E016D015B
:100210008F018F018F018F018F018F018F018F015E
:100220008F018F018F018F018F018F018F018F014E
:100230008F018F018F018F018F018F018F018F013E
:100240008F018F018F018F018F018F018F018F012E
:100250008F016D014E01300112010001EE00DB0043
:10026000C800B600A3008F007C0067005100330077
:100270008F018F018F018F018F018F018F018F01FE
:100280008F018F018F018F018F018F018F018F01EE
:100290008F016D014E01300112010001EE00DB0003
:1002A000C800B600A3008F007C0067005100330037
:1002B00000003300510067007C008F00A300B600EF
:1002C000C800DB00EE000001120130014E016D019B
:1002D0008F018F018F018F018F018F018F018F019E
:1002E0008F018F018F018F018F018F018F018F018E
:1002F0008F018F018F018F018F018F018F018F017E
:100300008F018F018F018F018F018F018F018F016D
:100310008F016D014E01300112010001EE00DB0082
:10032000C800B600A3008F007C00670051003300B6
:1003300000003300510067007C008F00A300B6006E
:10034000C800DB00EE000001120130014E016D011A
:100350008F018F018F018F018F018F018F018F011D
:100360008F018F018F018F018F018F018F018F010D
:1003700011241FBECFEFD8E0DEBFCDBF11E0A0E05B
:10038000B1E001C01D92A230B107E1F70E946B02FB
:100390000C94B1020C9400008AB18F788AB98AB1AA
:1003A000837F8AB95A9A5798259A0895E9E6F0E02A
:1003B00080818260808380818E7F8083E89A089527
:1003C0001F920F920FB60F9211242F933F934F93CA
:1003D0005F936F937F938F939F93AF93BF93EF93AD
:1003E000FF934F9B33C085B190E2892785B98091F7
:1003F000000190910101890F87FD03C080930101E5
:1004000002C0109201018091010190E09C01220F35
:10041000331FF901E059FE4F4591549150938B00E1
:1004200040938A00F901E059FD4F259134913093B2
:10043000890020938800FC014B9B03C0E051FF4FD3
:1004400002C0E059FF4F84910E949602FF91EF9104
:10045000BF91AF919F918F917F916F915F914F91DC
:100460003F912F910F900FBE0F901F901895E9B1FB
:10047000E077F0E054E0F595E7955A95E1F7E85913
:10048000FF4FE491E09300010895E1E8F0E08081FE
:1004900088618083A0E8B0E08C918E7F8C938C91F2
:1004A000826B8C9380E991E0909387008093860023
:1004B0008FE891E0909389008093880087E690E030
:1004C00090938B0080938A0080818160808384B1C7
:1004D000866084B908950E94820281E00E948D02A4
:1004E0000E947C020E9445020E94CC010E94D6011B
:1004F0000E9437027894FFCF2C98449A08952C9A42
:100500004498089587B18C6387B988B18C7388B992
:10051000249A0895439A439808952C984498429AAF
:10052000429881110E948A020C947C0298E080FF1C
:1005300002C0459A01C045988695429A42989150CA
:10054000B1F70C948A0220E180FF02C0459A01C0F5
:10055000459896958795429A42982150A9F70C9410
:060560008A02F894FFCFAF
:00000001FF
